:100000000C94B5000C94D2000C94D2000C94D20045
:100010000C94D2000C94D2000C94D2000C94D20018
:100020000C94D2000C94D2000C94D2000C94D20008
:100030000C94D2000C94D2000C94D2000C94D200F8
:100040000C94D2000C94D2000C9412010C94D200A7
:100050000C94D2000C94E7020C94D2000C94D200C1
:100060000C94D2000C94D2006E616E00696E660032
:1000700000407A10F35A00A0724E18090010A5D45F
:10008000E80000E87648170000E40B54020000CABC
:100090009A3B000000E1F505000080969800000002
:1000A00040420F000000A086010000001027000061
:1000B0000000E803000000006400000000000A00E7
:1000C000000000000100000000002C76D888DC67EA
:1000D0004F0823DFC1DFAE59E1B1B796E5E3E45342
:1000E000C63AE651997696E8E6C28426EB898C9B5F
:1000F00062ED407C6FFCEFBC9C9F40F2BAA56FA5FF
:10010000F490055A2AF75C936B6CF9676DC11BFC80
:10011000E0E40D47FEF520E6B500D0ED902E03009B
:10012000943577050080841E080000204E0A0000E8
:1001300000C80C333333330F986E12831141EF8DA7
:100140002114893BE65516CFFEE6DB18D1844B38E7
:100150001BF77C1D901DA4BBE424203284725E2218
:100160008100C9F124ECA1E53D2711241FBECFEF8A
:10017000D8E0DEBFCDBF13E0A0E0B1E0EAE9FDE1E9
:1001800002C005900D92AE35B107D9F724E0AEE577
:10019000B3E001C01D92AE3BB207E1F70E946506D5
:1001A0000C94CB0E0C9400009C0140E050E060E207
:1001B00071EA87E090E00E94BD0B21503109309335
:1001C000C5002093C40088E98093C10086E0809335
:1001D000C200789408959091C00095FFFCCF809361
:1001E000C6000895CF93DF93EC018881882321F026
:1001F00021960E94EB00F9CFDF91CF910895CF9324
:10020000DF93EC018881882321F021960E94EB0086
:10021000F9CF8DE00E94EB008AE00E94EB00DF91B5
:10022000CF9108951F920F920FB60F9211242F9322
:100230003F934F938F939F93AF93BF93EF93FF930E
:100240004091C600E0E0AE2FB0E0A65ABB4F8C91C3
:10025000882319F0EF5FE436B1F7E43628F4F0E0D4
:10026000E65AFB4F408311C020E0233660F4822F12
:1002700090E0FC01E55AFB4F3081FC01E65AFB4F50
:1002800030832F5FF2CF4093BD04FF91EF91BF9178
:10029000AF919F918F914F913F912F910F900FBEF2
:1002A0000F901F901895EF92FF920F931F93CF938B
:1002B0007C01CB0164E670E00E94A90BE114F1041B
:1002C00089F18B012FEF40E782E0215040408040D0
:1002D000E1F700C0000020E030E0C0E0232B21F572
:1002E000B7018AE594E00E94B40D9C019FEF40E7BE
:1002F00082E0915040408040E1F700C00000CF5FB5
:100300004C2F50E091E0041715070CF090E0992372
:1003100029F381E00115110509F480E08823F1F249
:1003200080E003C080E001C081E0CF911F910F9178
:10033000FF90EF90089580E0843638F4E82FF0E0E5
:10034000E65AFB4F10828F5FF7CF08951092B900E5
:1003500088E48093B80084E08093BC00089584EA28
:100360008093BC008091BC008823E4F7089584E961
:100370008093BC008091BC0084FDFCCF089590E088
:10038000880F991F862B8093BB0084E88093BC0064
:100390008091BC008823E4F78091B900887F08959C
:1003A0008093BB0084E88093BC008091BC008823CC
:1003B000E4F78091B900887F0895882321F088E0D0
:1003C0008093580408951092580408951F93CF9372
:1003D000DF93D82FC62F0E94AF0160E080915904AF
:1003E0000E94BF011C2F1D2B80915804812B0E945D
:1003F000D0010E94B7010E94AF0160E080915904D2
:100400000E94BF0180915804812B84600E94D0011A
:100410000E94B7018FE891E00197F1F700C000005A
:100420000E94AF0160E0809159040E94BF01DB7F10
:10043000CD2B809158048C2B0E94D0010E94B701D3
:100440008FE99FE00197F1F700C00000DF91CF91A5
:100450001F910895CF93C82F60E0807F0E94E6012E
:1004600060E08C2F8295807F0E94E601CF910895F5
:10047000CF93C82F0E94A60181E00E94DD018FE387
:100480009CE90197F1F700C00000C093590482E095
:100490000E942A0288E20E942A028CE00E942A021C
:1004A00086E00E942A0281E00E942A02CF910895EC
:1004B000CF93C82F61E0807F0E94E60161E08C2F1E
:1004C0008295807F0E94E601CF9108950F931F933C
:1004D000CF93DF938C01C0E0D0E0F801EC0FFD1F5B
:1004E0008081882321F00E9458022196F6CFDF9167
:1004F000CF911F910F910895CF93DF93EA0161305F
:1005000031F058F0623029F0633029F007C090ECE8
:1005100005C094E903C094ED01C090E88F70892B69
:100520000E942A02CE010E946602DF91CF910895B7
:10053000ECE7F0E08081806C8083EAE7F0E0808186
:100540008F68808380919C03882349F0ECE7F0E07A
:10055000808190919C03807F892B808308C0ECE789
:10056000F0E0808190919C03807F892B8083EAE773
:10057000F0E0808180648083089544E051E060E091
:1005800080E00E947C028BB188608BB92FEF81EEF6
:1005900094E0215080409040E1F700C000008BB112
:1005A000877F8BB92FEF81EE94E0215080409040FF
:1005B000E1F700C000008BB188608BB980E895E25C
:1005C0000E94D4000E949B010E94980208951F92ED
:1005D0000F920FB60F921124CF92DF92EF92FF92FB
:1005E0002F933F934F935F936F937F938F939F933B
:1005F000AF93BF93EF93FF93809178009091790030
:1006000090939B0380939A0380919C03882321F10C
:1006100080919A0390919B03843F914008F09AC087
:1006200065B1617080E090E00E94A00E409160038F
:1006300050916103609162037091630381E090E0E7
:100640000E94AE0E8FEF99E628E181509040204045
:10065000E1F700C000007EC0189B7AC080919A0329
:1006600090919B03909399038093980380919803B2
:1006700090919903892B09F46DC020E0213360F437
:10068000822F90E0FC01E959FC4F3081FC01EA59CE
:10069000FC4F30832F5FF2CF8091980390919903A4
:1006A00080939703109265031092640380E0823375
:1006B00088F4E82FF0E0EA59FC4F90812091640320
:1006C00030916503290F311D309365032093640336
:1006D0008F5FEDCF80916403909165038739910519
:1006E000A0F12091640330916503AFE2BAEB0E9460
:1006F000DC0B96958795969587959695879580932B
:100700005F0360915F0370E080E090E0C090600361
:10071000D0906103E0906203F090630320E035E93C
:100720004AEB5AE00E94BD0BCA01B9010E94A00722
:10073000A70196010E9432076093600370936103E2
:10074000809362039093630305C010925F0302C01D
:1007500010925F0390919C0381E0892780939C0312
:1007600080919C03882349F0ECE7F0E08081909130
:100770009C03807F892B808308C0ECE7F0E08081B8
:1007800090919C03807F892B8083EAE7F0E0808151
:1007900080648083FF91EF91BF91AF919F918F9182
:1007A0007F916F915F914F913F912F91FF90EF90CB
:1007B000DF90CF900F900FBE0F901F901895CF93A2
:1007C0008BB18B7F8BB92FEF84E39CE0215080406D
:1007D0009040E1F700C000008BB184608BB92FEF2F
:1007E00089E698E1215080409040E1F700C0000088
:1007F000C0E0C43178F485E191E00E94FF0040E060
:1008000068EE73E088E191E00E945301882321F0B3
:100810000E949B01C0E004C0C331D1F1CF5FE9CF9A
:10082000C431A8F58BE191E00E94FF002FEF84E333
:100830009CE0215080409040E1F700C0000062E25F
:1008400071E08AE594E00E94B40DBC016B5F7F4FBC
:1008500042E050E086E194E00E949A0D86E194E047
:100860000E94580C0D9724F00E949B0181E010C05B
:100870000E949B012FEF89E698E121508040904033
:10088000E1F700C000000E949B01CF5FC9CF80E06C
:10089000CF91089588E291E00E94FF0041E068EE68
:1008A00073E088E191E00E9453012FEF81EE94E024
:1008B000215080409040E1F700C000000E949B0161
:1008C00082E391E00E94FF0041E068EE73E088E17E
:1008D00091E00E9453012FEF81EE94E0215080407F
:1008E0009040E1F700C0000084E491E00E94FF0026
:1008F00041E068EE73E088E191E00E9453012FEF40
:1009000081EE94E0215080409040E1F700C000006B
:10091000809103018F93809102018F938EE591E086
:100920009F938F9386E194E09F938F930E94120E82
:1009300086E194E00E94FF0040E068EE73E088E109
:1009400091E00E9453012FEF81EE94E0215080400E
:100950009040E1F700C000000E949B010F900F90B3
:100960000F900F900F900F900895DF92EF92FF92EB
:100970000F931F93CF93DF93162F072FF82EE92E97
:10098000D42E42E751E061E08CE00E947C0284E7D3
:1009900091E00E94FF0040E068EB7BE088E191E09D
:1009A0000E9453018FE493EC0197F1F700C000001F
:1009B00040E064E670E081E891E00E945301882302
:1009C00061F089E891E00E94FF008FE493EC0197C9
:1009D000F1F700C000000E949B010E949B0184E788
:1009E00091E00E94FF0040E068EB7BE088E191E04D
:1009F0000E9453018FE493EC0197F1F700C00000CF
:100A00000E949B0187E991E00E94FF008FE493EC34
:100A10000197F1F700C000000E949B0183EA91E07A
:100A20000E94FF0040E068EE73E088E191E00E94E0
:100A300053018FE493EC0197F1F700C000000E948E
:100A40009B01809101018F93809100018F9385EB31
:100A500091E09F938F93CEE9D3E0DF93CF930E94F1
:100A6000120ECE010E94FF0040E068EE73E088E1C4
:100A700091E00E9453018FE493EC0197F1F700C0DD
:100A800000000E949B0188EC91E00E94FF0040E082
:100A900068EE73E088E191E00E9453018FE493ECEB
:100AA0000197F1F700C000000E949B011F92DF92A6
:100AB000EF92FF920F931F938EEF91E09F938F938E
:100AC000DF93CF930E94120E09900020E9F721973F
:100AD000CE59D340DF93CF9382E192E09F938F93DF
:100AE00086E194E09F938F930E94120E86E194E03A
:100AF0000E94FF0040E068EE73E088E191E00E9410
:100B000053018FE493EC0197F1F700C000000E94BD
:100B10009B018EE993E00E94FF0040E060E177E2F4
:100B200088E191E00E9453018FE493EC0197F1F783
:100B300000C000000E949B0187E292E00E94FF003B
:100B400040E060E177E287E392E00E9453018FE4A6
:100B500093EC0197F1F700C000000E949B0184E430
:100B600092E00E94FF0040E068E873E180E592E0D7
:100B70000E9453012DB73EB72A5E3F4F0FB6F8943F
:100B80003EBF0FBE2DBF8823A1F160E572E08AE56C
:100B900094E00E94B40DBC01645F7F4F41E050E0DF
:100BA00086E194E00E949A0D86E194E00E94580C40
:100BB000882379F085B1816085B981E080939D03B8
:100BC00045E951E061E08BE00E947C0210923F0415
:100BD0000DC085B18E7F85B910929D0342E451E02E
:100BE00061E08BE00E947C0210923E0481E08093E1
:100BF00040048FE493EC0197F1F700C000000E94DD
:100C00009B0146E053E061E08CE00E947C029FEF94
:100C100029E638E1915020403040E1F700C0000063
:100C200080914004DF91CF911F910F91FF90EF9041
:100C3000DF900895882351F08BE4EDE5F2E0AEE912
:100C4000B3E001900D928A95E1F709C081E4E8EAEA
:100C5000F2E0AEE9B3E001900D928A95E1F789EEFA
:100C600092E00E94FF002FEF31EE84E021503040EF
:100C70008040E1F700C000008EE993E00E94F2009E
:100C80009FEF21EE34E0915020403040E1F700C06A
:100C900000008AE10E94EB008FEF91EE24E081508A
:100CA00090402040E1F700C000000E949B013FEF10
:100CB00089E592E622E03150804090402040D9F70B
:100CC00000C000000E949B010895CF93DF93CDB731
:100CD000DEB72FEF84E39CE0215080409040E1F7A5
:100CE00000C0000084B1816084B98AB188608AB98B
:100CF00081E090E00E949A0E60936003709361031C
:100D0000809362039093630380E090E00E94920ED0
:100D1000882321F085B1816085B903C085B18E7FBC
:100D200085B981E494E00E944E0D87E20E9438026A
:100D300040E053E060E084E00E947C020E94BD023B
:100D40002FEF84E39CE0215080409040E1F700C009
:100D5000000078940E94DF03811106C061E070E01A
:100D600081E494E00E946E0D0E944A048091600329
:100D700090916103A0916203B0916303BF93AF931D
:100D80009F938F9388E093E09F938F930EE913E0F6
:100D90001F930F930E94120E0FB6F894DEBF0FBE82
:100DA000CDBFA80160E080E00E947C0280915F03DB
:100DB0001F928F9387E193E09F938F931F930F93DD
:100DC0000E94120E0F900F900F900F900F900F90A7
:100DD000A80161E080E00E947C029FEF24E38CE0A8
:100DE000915020408040E1F700C0000080915E03F8
:100DF0008F5F80935E03863008F4B8CF10925E0355
:100E000040915F0360916003709161038091620380
:100E1000909163030E94B504811106C061E070E007
:100E200081E494E00E946E0D80919D03811109C0C0
:100E300080913F04811105C00E941A0681E08093D1
:100E40003F0480919D03882309F490CF80913E0454
:100E500081118CCF81E00E941A0681E080933E04CC
:100E600085CF5058BB27AA270E9449070C94F20748
:100E70000E94E40738F00E94EB0720F039F49F3F0E
:100E800019F426F40C94E1070EF4E095E7FB0C94BA
:100E9000DB07E92F0E94030858F3BA1762077307AC
:100EA0008407950720F079F4A6F50C9425080EF434
:100EB000E0950B2EBA2FA02D0B01B90190010C016A
:100EC000CA01A0011124FF27591B99F0593F50F482
:100ED000503E68F11A16F040A22F232F342F4427DA
:100EE000585FF3CF469537952795A795F0405395D2
:100EF000C9F77EF41F16BA0B620B730B840BBAF0A2
:100F00009150A1F0FF0FBB1F661F771F881FC2F70C
:100F10000EC0BA0F621F731F841F48F48795779520
:100F20006795B795F7959E3F08F0B0CF9395880FDA
:100F300008F09927EE0F979587950895E89409C0D2
:100F400097FB3EF490958095709561957F4F8F4FFC
:100F50009F4F9923A9F0F92F96E9BB279395F69512
:100F6000879577956795B795F111F8CFFAF4BB0F90
:100F700011F460FF1BC06F5F7F4F8F4F9F4F16C0F4
:100F8000882311F096E911C0772321F09EE8872F7E
:100F9000762F05C0662371F096E8862F70E060E03A
:100FA0002AF09A95660F771F881FDAF7880F9695B3
:100FB000879597F9089597F99F6780E870E060E05A
:100FC00008959FEF80EC089500240A9416161706E2
:100FD00018060906089500240A941216130614062A
:100FE00005060895092E0394000C11F4882352F08D
:100FF000BB0F40F4BF2B11F460FF04C06F5F7F4F45
:101000008F4F9F4F089557FD9058440F551F59F02B
:101010005F3F71F04795880F97FB991F61F09F3FE5
:1010200079F087950895121613061406551FF2CF0E
:101030004695F1DF08C0161617061806991FF1CF5E
:1010400086957105610508940895E894BB27662785
:101050007727CB0197F90895A0E1B0E0E2E3F8E04B
:101060000C94EB0B7C011B016A01FC0117821682B8
:10107000838181FF44C39E012F5F3F4F3901F701F8
:101080009381F10193FD859193FF81911F01882345
:1010900009F431C3853239F493FD859193FF819131
:1010A0001F01853239F4B70190E00E94D60D560138
:1010B0006501E5CF10E0512C912CFFE1F915D8F036
:1010C0008B3279F038F4803279F08332A1F4F92D43
:1010D000F0612EC08D3261F0803369F4292D2160DA
:1010E0002DC0392D3260932E892D8460982E2AC010
:1010F000E92DE86015C097FC2DC020ED280F2A309F
:1011000088F496FE06C03AE0139F200D1124122F9A
:1011100019C08AE0589E200D1124522EE92DE0625C
:101120009E2E10C08E3231F496FCE5C2F92DF0648B
:101130009F2E08C08C3621F4292D2068922E02C0E3
:10114000883641F4F10193FD859193FF81911F0150
:101150008111B3CF9BEB980F933020F4992D9061C0
:10116000805E07C09BE9980F933008F066C1992D07
:101170009F7E96FF16E09F73992E853619F4906432
:10118000992E08C0863621F4392F3068932E02C07C
:101190001111115097FE07C01C3350F4442443949E
:1011A000410E27E00BC0183038F027E017E005C0EB
:1011B00027E09CE3492E02C0212F412C560184E0F8
:1011C000A80EB11CF6016081718182819381042D8A
:1011D000A3010E94760C6C01F981FC87F0FF02C02C
:1011E000F3FF06C091FC06C092FE06C000E205C0F7
:1011F0000DE203C00BE201C000E08C858C7019F099
:1012000001115AC29BC297FE10C04C0CFC85F4FF22
:1012100004C08A81813309F44A94141474F528E0D7
:10122000241578F588E0482E2CC096FC2AC0812F22
:1012300090E08C159D059CF03CEFC3163FEFD30664
:1012400074F0892D8068982E0AC0E2E0F0E0EC0F7F
:10125000FD1FE10FF11D8081803319F41150111130
:10126000F4CF97FE0EC044244394410E812F90E0AA
:10127000C816D9062CF41C1904C04424439401C098
:1012800010E097FE06C01C141D0434F4C60101963C
:1012900005C085E090E002C081E090E00111019678
:1012A000112331F0212F30E02F5F3F4F820F931F2A
:1012B000252D30E08217930714F4581A01C0512CE1
:1012C000892D897049F4552039F0B70180E290E00A
:1012D0000E94D60D5A94F7CF002329F0B701802F32
:1012E00090E00E94D60D93FC09C0552039F0B7015B
:1012F00080E390E00E94D60D5A94F7CF97FE4CC041
:101300004601D7FE02C0812C912CC601881999098B
:10131000F301E80FF91FFE87ED87960124193109C3
:10132000388B2F87012F10E01195019511093FEFA0
:101330008316930629F4B7018EE290E00E94D60D41
:10134000C814D9044CF08F8598898815990524F420
:10135000ED85FE85818101C080E3F1E08F1A91085F
:101360002D853E852F5F3F4F3E872D878016910646
:101370002CF0B70190E00E94D60DD9CFC814D90443
:1013800041F49A81963320F4953319F43C8534FF67
:1013900081E3B70190E04EC08A81813319F09C85CA
:1013A0009F7E9C87B70190E00E94D60D111105C069
:1013B00094FC18C085E690E017C0B7018EE290E07B
:1013C0000E94D60D1E5F82E001E0080FF301E80FD6
:1013D000F11D8081B70190E00E94D60D802F01138E
:1013E000F3CFE6CF85E490E0B7010E94D60DD7FC9D
:1013F00006C0C114D10441F4EC85E4FF05C0D194CA
:10140000C194D1088DE201C08BE2B70190E00E9447
:10141000D60D80E32AE0C216D1042CF08F5FFAE0EB
:10142000CF1AD108F7CFB70190E00E94D60DB701CF
:10143000C601C0960E94D60D54C1833631F0833761
:1014400079F0833509F056C020C0560132E0A30E72
:10145000B11CF6018081898301E010E0630112C0B4
:101460005601F2E0AF0EB11CF601C080D18096FEAD
:1014700003C0612F70E002C06FEF7FEFC6010E94D2
:10148000A90D8C01F92DFF7714C0560122E0A20EA0
:10149000B11CF601C080D18096FE03C0612F70E0C0
:1014A00002C06FEF7FEFC6010E948F0D8C01F92DF6
:1014B000F0689F2EF3FD1AC0852D90E008171907DC
:1014C000A8F4B70180E290E00E94D60D5A94F4CFC0
:1014D000F60197FC859197FE81916F01B70190E02D
:1014E0000E94D60D51105A94015011090115110591
:1014F00079F7F7C0843611F0893661F5560197FE09
:1015000009C024E0A20EB11CF601608171818281C4
:1015100093810AC0F2E0AF0EB11CF60160817181C7
:10152000072E000C880B990BF92DFF769F2E97FF45
:1015300009C090958095709561957F4F8F4F9F4F13
:10154000F0689F2E2AE030E0A3010E94340EC82EDE
:10155000C6183FC0092D853721F40F7E2AE030E000
:101560001DC0097F8F3691F018F4883559F0C3C03B
:10157000803719F0883711F0BEC0006104FF09C040
:10158000046007C094FE08C0066006C028E030E092
:1015900005C020E130E002C020E132E0560107FF43
:1015A00009C084E0A80EB11CF601608171818281BE
:1015B000938108C0F2E0AF0EB11CF6016081718129
:1015C00080E090E0A3010E94340EC82EC6180F7769
:1015D000902E96FE0BC0092D0E7FC11650F494FE7E
:1015E0000AC092FC08C0092D0E7E05C0DC2C092D16
:1015F00003C0DC2C01C0D12E04FF0DC0FE01EC0D98
:10160000F11D8081803311F4097E09C002FF06C0FC
:10161000D394D39404C0802F867809F0D39403FD2B
:1016200011C000FF06C01C2DD51480F4150D1D1926
:101630000DC0D51458F4B70180E290E00E94D60D99
:10164000D394F7CFD51410F45D1801C0512C04FFCA
:1016500010C0B70180E390E00E94D60D02FF17C0D2
:1016600001FD03C088E790E002C088E590E0B70183
:101670000CC0802F867859F001FF02C08BE201C0B8
:1016800080E207FD8DE2B70190E00E94D60DC11601
:1016900038F4B70180E390E00E94D60D1150F7CFE7
:1016A000CA94F301EC0DF11D8081B70190E00E9416
:1016B000D60DC110F5CF15C0F4E0F51560F584E046
:1016C000581A93FE1FC0011127C02C8523FF2AC082
:1016D00008E610E0392D3071932EF80184918111C4
:1016E00024C0552009F4E4CCB70180E290E00E94C8
:1016F000D60D5A94F6CFF7018681978126C08FEFD9
:101700009FEF23C0B70180E290E00E94D60D5A946B
:101710005110F8CFD8CF512CB701802F90E00E9404
:10172000D60DD3CF0CE610E0D5CF91108052B70183
:1017300090E00E94D60D0F5F1F4FCFCF23E02515FD
:1017400010F483E0BDCF512CC0CF6096E2E10C9441
:10175000070C97FB072E16F4009407D077FD09D0ED
:101760000E94220C07FC05D03EF4909581959F4F76
:101770000895709561957F4F0895052E97FB1EF48F
:1017800000940E94D40B57FD07D00E94360C07FC32
:1017900003D04EF40C94D40B509540953095219580
:1017A0003F4F4F4F5F4F089590958095709561958D
:1017B0007F4F8F4F9F4F0895A29FB001B39FC001ED
:1017C000A39F700D811D1124911DB29F700D811D6D
:1017D0001124911D08952F923F924F925F926F9224
:1017E0007F928F929F92AF92BF92CF92DF92EF92B1
:1017F000FF920F931F93CF93DF93CDB7DEB7CA1B32
:10180000DB0B0FB6F894DEBF0FBECDBF09942A885C
:10181000398848885F846E847D848C849B84AA8404
:10182000B984C884DF80EE80FD800C811B81AA8191
:10183000B981CE0FD11D0FB6F894DEBF0FBECDBF5C
:10184000ED010895AA1BBB1B51E107C0AA1FBB1FD6
:10185000A617B70710F0A61BB70B881F991F5A953C
:10186000A9F780959095BC01CD010895A1E21A2EAB
:10187000AA1BBB1BFD010DC0AA1FBB1FEE1FFF1F34
:10188000A217B307E407F50720F0A21BB30BE40B84
:10189000F50B661F771F881F991F1A9469F76095CB
:1018A0007095809590959B01AC01BD01CF01089585
:1018B000FC0188279927E89421912032E9F3293007
:1018C00010F02E30C8F32B3241F02D3239F46894E9
:1018D00004C00E94CE0D820F911D219120532A3009
:1018E000C0F31EF4909581959F4F0895283008F01D
:1018F00027E03327DA01990F311D87FD91600096AB
:101900006105710539F432602E5F3D9330E32A950D
:10191000E1F708959F3F30F080387105610509F0C7
:101920003C5F3C5F3D93913008F08068911DDF93F0
:10193000CF931F930F93FF92EF92192F987F969555
:10194000E92F96959695E90FFF27E653FF4F9927C4
:101950003327EE24FF24A701E7010590089407949C
:1019600028F4360FE71EF81E491F511D660F771F1A
:10197000881F991F0694A1F70590079428F4E70E95
:10198000F81E491F561FC11D770F881F991F661F1C
:101990000694A1F70590079428F4F80E491F561FE6
:1019A000C71FD11D880F991F661F771F0694A1F7C7
:1019B0000590079420F4490F561FC71FD81F990F91
:1019C000661F771F881F0694A9F7849110951770DA
:1019D00041F0D695C79557954795F794E7941A9592
:1019E000C1F7E0E7F0E068941590159135916591A5
:1019F000959105907FE27395E118F10A430B560B20
:101A0000C90BD009C0F7E10CF11E431F561FC91FB7
:101A1000D01D7EF4703311F48A95E6CFE89401501E
:101A200030F0080F0AF40027021708F4202F23953E
:101A3000022F7A3328F079E37D932A95E9F710C0D5
:101A40007D932A9589F6069497956795379517950E
:101A50001794E118F10A430B560BC90BD00998F003
:101A600023957E9173957A3308F070E37C9320136D
:101A7000B8F77E9170617D9330F0839571E37D932B
:101A800070E32A95E1F71124EF90FF900F911F91D9
:101A9000CF91DF91992787FD90950895DC012D92D4
:101AA0003D924D925D926D927D928D929D92AD92FE
:101AB000BD92CD92DD92ED92FD920D931D93CD934B
:101AC000DD93FF91EF918DB78D938EB78D938FB787
:101AD0008D93ED93FD93882799270994DC01CB0121
:101AE00081309105811D2D903D904D905D906D90C0
:101AF0007D908D909D90AD90BD90CD90DD90ED90BE
:101B0000FD900D911D91CD91DD91ED91FD910D9087
:101B1000F894FEBF0FBEEDBFED91FD910994FC015D
:101B20000590615070400110D8F7809590958E0F08
:101B30009F1F0895FB01DC014150504048F0019087
:101B40000D920020C9F701C01D9241505040E0F7AE
:101B50000895FC016150704001900110D8F7809504
:101B600090958E0F9F1F0895FB0151915523A9F069
:101B7000BF01DC014D9145174111E1F759F4CD0149
:101B80000190002049F04D9140154111C9F3FB012E
:101B90004111EFCF81E090E0019708957AE0979F9F
:101BA000902D879F802D910D112408950F931F93E1
:101BB000CF93DF93FB01238121FD03C08FEF9FEFC4
:101BC0002CC022FF16C046815781248135814217DF
:101BD000530744F4A081B1819D012F5F3F4F3183B2
:101BE00020838C93268137812F5F3F4F3783268355
:101BF00014C08B01EC01FB010084F185E02D0995F7
:101C0000892BE1F6D80116968D919C911797019634
:101C100017969C938E931697CE01DF91CF911F91CB
:101C20000F910895AEE0B0E0E8E1FEE00C94F90B0E
:101C30000D891E8986E08C831A8309838FEF9FE7C5
:101C40009E838D83AE01475E5F4F6F89788DCE0195
:101C500001960E942C08EF81F885E00FF11F108299
:101C60002E96E4E00C94150CFA01AA27283051F1C5
:101C7000203181F1E8946F936E7F6E5F7F4F8F4FBD
:101C80009F4FAF4FB1E03ED0B4E03CD0670F781F1C
:101C9000891F9A1FA11D680F791F8A1F911DA11D01
:101CA0006A0F711D811D911DA11D20D009F468943A
:101CB0003F912AE0269F11243019305D3193DEF6E2
:101CC000CF010895462F4770405D4193B3E00FD098
:101CD000C9F7F6CF462F4F70405D4A3318F0495D83
:101CE00031FD4052419302D0A9F7EACFB4E0A69566
:101CF0009795879577956795BA95C9F70097610588
:101D0000710508959B01AC010A2E069457954795DD
:101D100037952795BA95C9F7620F731F841F951FD2
:101D2000A01D0895F999FECF92BD81BDF89A99271B
:101D300080B50895A6E1B0E044E050E00C94BD0EFB
:101D4000262FF999FECF1FBA92BD81BD20BD0FB6D7
:101D5000F894FA9AF99A0FBE01960895242F0E94DA
:101D6000A10E252F0E94A10E0C94B60E0E94A00E6B
:101D7000272F0C94A10EDC01CB01FC01F999FECFB9
:101D800006C0F2BDE1BDF89A319600B40D92415003
:0A1D90005040B8F70895F894FFCF13
:101D9A0023035603496E697469616C697A696E67CF
:101DAA00202E202E004154004F4B0041542B435308
:101DBA0051004353513A200041542B434D47463D6D
:101DCA00310041542B434E4D493D312C322C302C9D
:101DDA00302C300041542B53415042523D332C3168
:101DEA002C436F6E747970652C47505253004154DE
:101DFA002B53415042523D332C312C41504E2C250D
:101E0A007300500041542B53415042523D322C3101
:101E1A0000302E302E302E300041542B5341504288
:101E2A0052203D312C310041542B48545450494ED4
:101E3A0049540041542B48545450504152413D4357
:101E4A0049442C310041542B48545450504152417A
:101E5A003D55524C2C25730041542B485454505034
:101E6A004152413D434F4E54454E542C6170706C63
:101E7A0069636174696F6E2F782D7777772D666F36
:101E8A00726D2D75726C656E636F64656400756E34
:101E9A006974773D252E34662677617474773D25FB
:101EAA00750041542B48545450444154413D2564D3
:101EBA002C31303030300041542B48545450414377
:101ECA0054494F4E3D31002B4854545041435449D4
:101EDA004F4E3A0041542B48545450524541440005
:101EEA00756E6974414477617474414400596F7521
:101EFA007220456C656374726963616C20436F6E0E
:101F0A006E656374696F6E20697320526573746FAE
:101F1A007265642E0D0A5468616E6B20796F7520A4
:101F2A00666F72206D616B652061207061796D65E5
:101F3A006E742E2043454200596F757220456C65B8
:101F4A006374726963616C20436F6E6E6563746952
:101F5A006F6E20697320446973636F6E6E65637474
:101F6A0065642E200D0A506C65736520436F6E748C
:101F7A00616374204345422E0041542B434D47531D
:101F8A003D222B3934373534323234363037220059
:101F9A0057454C434F4D4500556E697420253037DF
:101FAA002E34664B77680057617474202530347577
:101FBA00572000687474703A2F2F736D61727465BC
:101FCA006C6563747269636C6B2E3030307765624E
:101FDA00686F73746170702E636F6D2F7772697496
:0E1FEA00652E706870006D6F626974656C0022
:00000001FF
