:1000000012C02CC02BC02AC029C028C027C026C0BF
:1000100025C024C023C063C021C020C01FC01EC093
:100020001DC01CC01BC011241FBECFE5D4E0DEBF25
:10003000CDBF10E0A0E6B0E0EAE2F4E002C0059037
:100040000D92AE36B107D9F720E0AEE6B0E001C0C0
:100050001D92A23AB207E1F7C9D0E5C1D1CF9C0108
:1000600040E050E060E271EA87E090E068D1215022
:10007000310930BD29B988E98AB98EE880BD789404
:1000800008955D9BFECF8CB90895CF93DF93EC016B
:100090008881882329F02196F4DF89918111FCCF92
:1000A000DF91CF910895CF93DF93EC01888188236E
:1000B00029F02196E6DF89918111FCCF8DE0E1DF07
:1000C0008AE0DFDFDF91CF910895DC01CB0150E0C2
:1000D00061EA70E056D181EA90E0D7DF08951F927F
:1000E0000F920FB60F9211242F933F934F938F933C
:1000F0009F93EF93FF934CB180916F00882369F039
:1001000080E08F5F282F30E0F901E159FF4F9081A7
:100110009111F7CF823340F402C020E030E0F901C2
:10012000E159FF4F40830BC0EFE6F0E020EA30E0FA
:10013000818181932E173F07D9F74093A000FF914B
:10014000EF919F918F914F913F912F910F900FBE03
:100150000F901F90189511B888E480B984E086BF8D
:10016000089584EA86BF06B607FEFDCF089584E9A8
:1001700086BF06B604FCFDCF0895880F682B63B9CF
:1001800084E886BF06B607FEFDCF81B1887F08955B
:1001900083B984E886BF06B607FEFDCF81B1887FAC
:1001A000089584EC86BF06B607FEFDCF83B108959F
:1001B00084E886BF06B607FEFDCF83B10895882385
:1001C000A1F090E0C09AC59AEFE2F5E73197F1F718
:1001D00000C00000C098C598EFE2F5E73197F1F74D
:1001E00000C000009F5F8913EDCF089580E895E27D
:1001F00036DF82E690E057DFB89ABD9ABF98C79A7B
:10020000AADFAFDF60E088E6B8DF80E0C1DFA9DF0A
:1002100061E088E6B2DFC5DFC82FD0E0C2DFD82BAF
:10022000C7DFA5DF8E01007F1127129502950F70A1
:1002300001271F700127000F602F660F660F060F42
:100240006C2F6F70060F6D2F62956F70660F862F83
:10025000880F880F680FCC27DF701D2F160F81DFE6
:1002600060E088E68ADF82E093DF7BDF61E088E69A
:1002700084DF9EDFD82F7BDF6D2F607366956695D8
:100280006695C62FCC0FCC0F6C0FDF70C62FCD0F2D
:1002900080916100C81308C080916000181304C0E9
:1002A00080916E00081711F0B79924C080E090E0AB
:1002B000A5D0811107C087E082DF61E080E090E097
:1002C000A5D00FC0813039F487E079DF62E080E0AB
:1002D00090E09CD006C086E072DF60E080E090E0B5
:1002E00095D02FEF8EE994E2215080409040E1F7C5
:1002F00000C000006C2F70E080E090E04AE0E5DE96
:100300008AE690E0C2DE612F70E080E090E04AE093
:10031000DCDE8AE690E0B9DE602F70E080E090E0FD
:100320004AE0D3DE8CE690E0B0DE2FEF80E792E08B
:10033000215080409040E1F700C0000062CFA1E270
:100340001A2EAA1BBB1BFD010DC0AA1FBB1FEE1F4F
:10035000FF1FA217B307E407F50720F0A21BB30B9A
:10036000E40BF50B661F771F881F991F1A9469F716
:1003700060957095809590959B01AC01BD01CF0172
:1003800008954532510518F4423008F004C0FB01CD
:100390001082CB010895BB274A3031F4992322F40F
:1003A000BDE2909581959F4F01C0BB27FB0155276A
:1003B000AA27880F991FAA1FA41710F0A41B8395C2
:1003C0005051B9F7A05DAA3308F0A95DA193009739
:1003D00079F7B111B1931192CB0100C0DC01FC019E
:1003E000672F71917723E1F7329704C07C916D9369
:1003F00070836291AE17BF07C8F30895E199FECFED
:100400009FBB8EBBE09A99278DB30895262FE19963
:10041000FECF9FBB8EBB2DBB0FB6F894E29AE19A3C
:0A0420000FBE01960895F894FFCF77
:0E042A001E1153746174726564003A000A007A
:00000001FF
