S01700004763634170706C69636174696F6E342E7372656358
S11300000C942A000C9447000C9447000C9447006D
S11300100C9447000C9447000C9447000C94470040
S11300200C9447000C9447000C9447000C94470030
S11300300C9447000C9447000C9447000C94470020
S11300400C9447000C9447000C9447000C94470010
S11300500C94470011241FBECFE5D8E0DEBFCDBF0E
S113006010E0A0E6B0E0E8E3FBE002C005900D92EA
S1130070A238B107D9F720E0A2E8B0E001C01D9290
S1130080A939B207E1F70E9425010C949A050C9452
S1130090000070E0660F771F982F962B9BBB982F5C
S11300A0962B98609BBBEFE8F1E03197F1F700C025
S11300B00000877F682B6BBB8FE99FE00197F1F706
S11300C000C000000895CF93C82F60E0807F0E9495
S11300D0490060E08C2F8295807F0E944900CF9177
S11300E008958FE39CE90197F1F700C000008EEFBB
S11300F08ABB82E00E94630088E20E9463008CE075
S11301000E94630086E00E94630081E00E94630015
S11301100895CF93C82F61E0807F0E94490061E079
S11301208C2F8295807F0E944900CF9108950F9370
S11301301F93CF93DF938C01C0E0D0E0F801EC0F64
S1130140FD1F8081882321F00E9489002196F6CF2B
S1130150DF91CF911F910F910895CF93DF93EA011F
S1130160613031F058F0623029F0633029F007C073
S113017090EC05C094E903C094ED01C090E88F7041
S1130180892B0E946300CE010E949700DF91CF91DA
S1130190089597B1907F8F70892B87B986B1806459
S11301A086B93699FECF84B195B108958FE084BBAA
S11301B080EF85BB20E030E083B38F608095E1F170
S11301C0803249F018F4803161F00CC0803429F099
S11301D0803829F007C091E005C092E003C093E0A5
S11301E001C090E014BA15BA80EF84BB8FE085BBE0
S11301F083B3806F8095823049F018F4813061F0C8
S11302000CC0843029F0883029F007C0E1E005C033
S1130210E2E003C0E3E001C0E0E08FE084BB80EFF4
S113022085BBF0E0EE0FFF1FEE0FFF1FEF58FF4FEF
S1130230E90FF11D808108952F5F3F4F213583EC35
S1130240380708F4B9CF84E1089587E20E94710069
S113025087B1806C87B986B1876086B986B18068BA
S113026086B90E94D60080938400843111F0809373
S1130270600080E00E94C900BC0180E090E00E9420
S1130280220224E13EEA43E251E40E9481010E94F9
S1130290F301609382007093830080916000843145
S11302A099F47F936F9381E690E09F938F9385E811
S11302B090E09F938F930E94B0020F900F900F9045
S11302C00F900F900F9016C07F936F931F928F9390
S11302D088E690E09F938F9385E890E09F938F93B7
S11302E00E94B0028DB79EB708960FB6F8949EBFD1
S11302F00FBE8DBF45E850E060E080E00E94AD0095
S1130300B0CF0E9495010C9476020E946F0258F0BF
S11303100E94680240F029F45F3F29F00C945F02C8
S113032051110C94AA020C9465020E94870268F38E
S11303309923B1F3552391F3951B550BBB27AA279A
S113034062177307840738F09F5F5F4F220F331FD4
S1130350441FAA1FA9F335D00E2E3AF0E0E832D09C
S113036091505040E695001CCAF72BD0FE2F29D09F
S1130370660F771F881FBB1F261737074807AB0771
S1130380B0E809F0BB0B802DBF01FF2793585F4FE6
S11303903AF09E3F510578F00C945F020C94AA0247
S11303A05F3FE4F3983ED4F3869577956795B795C8
S11303B0F7959F5FC9F7880F911D9695879597F9D3
S11303C00895E1E0660F771F881FBB1F621773074C
S11303D08407BA0720F0621B730B840BBA0BEE1F61
S11303E088F7E09508950E948F0288F09F5798F04F
S11303F0B92F9927B751B0F0E1F0660F771F881F26
S1130400991F1AF0BA95C9F714C0B13091F00E943F
S1130410A902B1E008950C94A902672F782F8827C8
S1130420B85F39F0B93FCCF3869577956795B39566
S1130430D9F73EF490958095709561957F4F8F4FD5
S11304409F4F0895E89409C097FB3EF490958095DA
S1130450709561957F4F8F4F9F4F9923A9F0F92F86
S113046096E9BB279395F695879577956795B79504
S1130470F111F8CFFAF4BB0F11F460FF1BC06F5FEA
S11304807F4F8F4F9F4F16C0882311F096E911C0FC
S1130490772321F09EE8872F762F05C0662371F01D
S11304A096E8862F70E060E02AF09A95660F771F31
S11304B0881FDAF7880F9695879597F9089597F925
S11304C09F6780E870E060E008959FEF80EC0895F6
S11304D000240A941616170618060906089500241F
S11304E00A9412161306140605060895092E039499
S11304F0000C11F4882352F0BB0F40F4BF2B11F40D
S113050060FF04C06F5F7F4F8F4F9F4F089557FD6B
S11305109058440F551F59F05F3F71F04795880F6D
S113052097FB991F61F09F3F79F087950895121604
S113053013061406551FF2CF4695F1DF08C01616B0
S113054017061806991FF1CF869571056105089461
S11305500895E894BB2766277727CB0197F9089578
S1130560AEE0B0E0E6EBF2E00C9471050D891E8973
S113057086E08C831A8309838FEF9FE79E838D83A4
S1130580AE01475E5F4F6F89788DCE0101960E9460
S1130590D202EF81F885E00FF11F10822E96E4E07D
S11305A00C948D05ABE0B0E0E8EDF2E00C9463054B
S11305B06C017B018A01FC0117821682838181FF11
S11305C0CCC1CE0101963C01F6019381F70193FD64
S11305D0859193FF81917F01882309F4BAC1853203
S11305E039F493FD859193FF81917F01853229F43C
S11305F0B60190E00E94C904E7CF912C212C312C44
S1130600FFE1F315D8F08B3279F038F4803279F0C9
S11306108332A1F4232D20611DC08D3261F080331B
S113062069F4232D216016C0832D8260382EE32DBA
S1130630E4603E2E2AC0F32DF8601DC037FC2DC0A7
S113064020ED280F2A3040F08E32B9F436FC81C1F7
S1130650232D2064322E19C036FE06C08AE0989EEF
S1130660200D1124922E11C0EAE02E9E200D11249B
S1130670222EF32DF0623F2E08C08C3621F4832DF8
S11306808068382E02C0883641F4F70193FD8591C5
S113069093FF81917F018111B3CF982F9F7D955452
S11306A0933028F40C5F1F4F9FE399830DC083366A
S11306B031F0833771F0833509F059C021C0F80156
S11306C0808189830E5F1F4F88248394912C53016A
S11306D013C02801F2E04F0E511CF801A080B18034
S11306E036FE03C0692D70E002C06FEF7FEFC501D5
S11306F00E94BE044C018201F32DFF773F2E16C0E9
S1130700280122E0420E511CF801A080B18036FE7F
S113071003C0692D70E002C06FEF7FEFC5010E9436
S1130720B3044C01F32DF0683F2E820133FC1BC04F
S1130730822D90E088169906B0F4B60180E290E02C
S11307400E94C9042A94F4CFF50137FC859137FE41
S113075081915F01B60190E00E94C90421102A949E
S113076021E0821A91088114910471F7E8C084365B
S113077011F0893641F5F80137FE07C060817181B7
S1130780828193810C5F1F4F08C060817181072EA5
S1130790000C880B990B0E5F1F4FF32DFF763F2E35
S11307A097FF09C090958095709561957F4F8F4F05
S11307B09F4FF0683F2E2AE030E0A3010E94050518
S11307C0882E861845C0853731F4232D2F7EB22E0E
S11307D02AE030E025C0932D997FB92E8F36C1F0E1
S11307E018F4883579F0B5C0803719F0883721F0CE
S11307F0B0C0E92FE061BE2EB4FE0DC0FB2DF46045
S1130800BF2E09C034FE0AC0292F2660B22E06C0AE
S113081028E030E005C020E130E002C020E132E011
S1130820F801B7FE07C060817181828193810C5FFA
S11308301F4F06C06081718180E090E00E5F1F4F02
S1130840A3010E940505882E8618FB2DFF773F2EF5
S113085036FE0DC0232D2E7FA22E891458F434FEAB
S11308600BC032FC09C0832D8E7EA82E05C0B82C87
S1130870A32C03C0B82C01C0B92CA4FE0FC0FE01E8
S1130880E80DF11D8081803321F49A2D997EA92EE3
S113089009C0A2FE06C0B394B39404C08A2D86781E
S11308A009F0B394A3FC11C0A0FE06C0B21488F4EE
S11308B0280C922C9B180EC0B21460F4B60180E28E
S11308C090E00E94C904B394F7CFB21418F42B1823
S11308D002C0982C212CA4FE10C0B60180E390E045
S11308E00E94C904A2FE17C0A1FC03C088E790E0DF
S11308F002C088E590E0B6010CC08A2D867859F0D4
S1130900A1FE02C08BE201C080E2A7FC8DE2B60129
S113091090E00E94C904891438F4B60180E390E0A1
S11309200E94C9049A94F7CF8A94F301E80DF11D4B
S11309308081B60190E00E94C9048110F5CF222085
S113094009F442CEB60180E290E00E94C9042A94E0
S1130950F6CFF6018681978102C08FEF9FEF2B9629
S1130960E2E10C947F05FC01059061507040011098
S1130970D8F7809590958E0F9F1F0895FC016150C4
S1130980704001900110D8F7809590958E0F9F1FAD
S113099008950F931F93CF93DF93FB01238121FDD0
S11309A003C08FEF9FEF2CC022FF16C046815781F2
S11309B0248135814217530744F4A081B1819D01FC
S11309C02F5F3F4F318320838C93268137812F5FA4
S11309D03F4F3783268314C08B01EC01FB01008455
S11309E0F185E02D0995892BE1F6D80116968D91B4
S11309F09C911797019617969C938E931697CE0108
S1130A00DF91CF911F910F910895FA01AA27283001
S1130A1051F1203181F1E8946F936E7F6E5F7F4FC7
S1130A208F4F9F4FAF4FB1E03ED0B4E03CD0670F43
S1130A30781F891F9A1FA11D680F791F8A1F911D96
S1130A40A11D6A0F711D811D911DA11D20D009F4E6
S1130A5068943F912AE0269F11243019305D319328
S1130A60DEF6CF010895462F4770405D4193B3E011
S1130A700FD0C9F7F6CF462F4F70405D4A3318F0B8
S1130A80495D31FD4052419302D0A9F7EACFB4E069
S1130A90A6959795879577956795BA95C9F7009721
S1130AA06105710508959B01AC010A2E06945795C2
S1130AB0479537952795BA95C9F7620F731F841F19
S1130AC0951FA01D08952F923F924F925F926F92AF
S1130AD07F928F929F92AF92BF92CF92DF92EF92CA
S1130AE0FF920F931F93CF93DF93CDB7DEB7CA1B4B
S1130AF0DB0B0FB6F894DEBF0FBECDBF09942A8876
S1130B00398848885F846E847D848C849B84AA841D
S1130B10B984C884DF80EE80FD800C811B81AA81AA
S1130B20B981CE0FD11D0FB6F894DEBF0FBECDBF75
S10B0B30ED010895F894FFCFD4
S1130B3814202020202575002530327520202575A5
S1130B48000708090A0405060B0102030C0D000E30
S1050B580F0088
S9030000FC
