S0110000646F6F7232333133612E7372656335
S113000014C02CC02BC02AC029C028C027C026C0B9
S113001025C024C023C022C021C057C01FC01EC099
S11300201DC01CC01BC01AC019C011241FBECFEDB7
S1130030CDBF10E0A0E6B0E0E0E2F7E002C005903A
S11300400D92A037B107D9F720E0A0E7B0E001C0D6
S11300501D92AB39B207E1F7D2D260C3D1CFD19AA6
S1130060D99A80B7826080BF89B7816089BF88E3ED
S113007086BF78940895D99A209198003091990078
S1130080232B11F590E0880F991F9093990080938A
S1130090980080919800909199008E7F9093990098
S11300A08093980080919800909199009260909329
S11300B099008093980083B7826083BF80919800F1
S11300C090919900892BD1F708951F920F920FB642
S11300D00F9211248F939F9380919800909199008F
S11300E080FF02C0D99A01C0D9988091980090915C
S11300F099009695879590939900809398008091A4
S1130100980090919900892B21F483B7887F83BF4D
S113011012BE9F918F910F900FBE0F901F90189554
S1130120CF93DF93EC018881882329F02196A3DF04
S113013089918111FCCFDF91CF910895DC01CB012E
S113014050E06AE970E0ADD28AE990E0E9DF089511
S1130150CF93DF93EC018881882329F021968BDFEC
S113016089918111FCCF8DE086DF8AE084DFDF9105
S1130170CF91089527B3226B27BBBE98C49A20EC75
S113018023B928E12AB99C0140E050E060E970ED10
S113019083E090E064D22150310932B929B908953D
S11301A05D9BFECF8CB95F9BFECF8CB10895807FA1
S11301B090E09595879595958795959587959595CF
S11301C087958A3010F4805D0895895C08958F7056
S11301D08A3010F4805D0895895C0895AF92BF92CF
S11301E0CF92DF92EF92FF920F931F93CF93DF93FF
S11301F003E910E0F801F0808F2DD9DFA82ECBE8B9
S1130200D0E088838F2DE3DFB82E8983F801F18055
S11302108F2DCDDFC82E8A838F2DD9DFD82E8B83E7
S1130220F801F2808F2DC3DFE82E8C838F2DCFDF72
S1130230F82E8D83F8010381802FB9DF182F8E8368
S1130240802FC5DF8F83E1E8F0E0A082B182C28213
S1130250D382E482F58216838783DF91CF911F9145
S11302600F91FF90EF90DF90CF90BF90AF900895E3
S1130270CF93C62FC498880F8E7792DF8C2F90DF90
S1130280C49ACF910895C498880F8E77806888DFC8
S113029080E086DFC49A0895CF93DF93D82FC62FCA
S11302A0F2DF682F6C2B8D2FE3DFDF91CF91089560
S11302B0CF93DF93D82FC62FE6DFC0956C2F68232A
S11302C08D2FD6DFDF91CF91089584E1DCDF837039
S11302D019F463E084E1E0DF08956FE081E0C8DFB2
S11302E00895FBDF6DE88AE2C3DF6EE38BE2C0DFD3
S11302F06EE18DE2BDDF60E08CE2BADF60E485E1AF
S1130300B7DF6DE381E1B4DFE0DF08957F928F9280
S11303109F92AF92BF92CF92DF92EF92FF920F9390
S11303201F93CF93DF93B82EC62FD72FC42EA22EA0
S1130330932E78018CE0B81609F49AC0EEE0BE1250
S113034008C06894772474F80F2EF2E18F2EF02DF4
S113035002C0712C812C682D606882E089DF60E81E
S113036084E0A6DF60E88AE097DF60E081E080DF78
S1130370D12CC114D10469F00C2F1D2FC0E0D0E0A2
S1130380F80161918F0189E073DF2196CC15DD05B9
S1130390B8F36B2D81E06CDFFCE0BF1203C060E8B2
S11303A08DE07ADF84E06FDF182FCFECD7E0072DE4
S11303B0016006C084E067DF182F219709F471C03B
S11303C0802F8123B9F372C0882D81701823C1E076
S11303D009F4C0E08CE0B81272C08AE054DFD82F70
S11303E08CE051DF282F277079F08D2F90E0019752
S11303F0880F991F880F991F880F991F820F911DCD
S1130400F701918380830BC08D2F90E0880F991F93
S1130410880F991F880F991FF70191838083DD232B
S113042049F0D13108F0D0E1ED2EF12CE114F104C2
S113043021F445C0EE24E394F12CCA2CD92C00E01D
S113044010E089E020DFF60181936F010F5F1F4FF9
S11304500E151F05B0F333C06CE081E009DF0F2EE9
S1130460F0E37F2EF02D0F2EF7E78F2EF02D97CF90
S113047067EF82E0FDDE60E884E01ADF60E88AE08E
S11304800BDF60E081E0F4DED12CC114D10421F350
S11304900F2EF0E37F2EF02D0F2EF7E78F2EF02D89
S11304A06BCF60E88DE004DFC2E009C060E88DE056
S11304B0FFDE86E0E8DE8B7109F486CFC2E08C2F84
S11304C0DF91CF911F910F91FF90EF90DF90CF902C
S11304D0BF90AF909F908F907F900895EF92FF927E
S11304E00F931F93CF93DF9300D0CDB7DD27182F41
S11304F07B0167E08DE0BCDEF70110838E010F5FA6
S11305001F4F970141E0B7018CE000DF811107C064
S113051029813A812031310519F082E001C082E05D
S1130520CE5FCDBFDF91CF911F910F91FF90EF90E0
S11305300895EF92FF920F931F93CF93DF9300D010
S1130540CDB7DD277C0160E08DE092DE83E9F70121
S1130550808380E281838E010F5F1F4F970142E009
S1130560B7018CE0D3DE81110EC0F701A7014C5F07
S11305705F4F90E021919227E417F507D9F7F7012F
S11305802481921382E0CE5FCDBFDF91CF911F9182
S11305900F91FF90EF9008950F931F93CF93DF93E4
S11305A061E770E086E29ADF8093700081E790E073
S11305B0C0DF8093700095E0E1E7F0E0A3E9B0E0EC
S11305C001900D929A95E1F7811114C007DEC1E8FC
S11305D0D0E009E810E0699170E080E090E04AE042
S11305E0ADDD80E690E09CDDC017D107A1F781E680
S11305F090E0AEDDDF91CF911F910F9108952FDD33
S113060082E690E0A5DD8E9A969A2FEF84E39CE033
S1130610215080409040E1F700C0000080E699E05E
S1130620A9DD5FDEC0E08C2F2EDE682F70E080E055
S113063090E042E083DD81E690E08ADDCF5FC53063
S113064091F72FE78AE196E0215080409040E1F74E
S113065000C00000A1DF8AE690E07ADDF2CFA1E2DB
S11306601A2EAA1BBB1BFD010DC0AA1FBB1FEE1F28
S1130670FF1FA217B307E407F50720F0A21BB30B73
S1130680E40BF50B661F771F881F991F1A9469F7EF
S113069060957095809590959B01AC01BD01CF014B
S11306A008954532510518F4423008F004C0FB01A6
S11306B01082CB010895BB274A3031F4992322F4E8
S11306C0BDE2909581959F4F01C0BB27FB01552743
S11306D0AA27880F991FAA1FA41710F0A41B83959B
S11306E05051B9F7A05DAA3308F0A95DA193009712
S11306F079F7B111B1931192CB0100C0DC01FC0177
S1130700672F71917723E1F7329704C07C916D9341
S113071070836291AE17BF07C8F30895F894FFCFB2
S1130720200053746172746564006C6F6F70000014
S9030000FC
