S01700004763634170706C69636174696F6E312E737265635B
S11300000C942A000C9447000C9447000C9447006D
S11300100C9447000C9447000C9447000C94470040
S11300200C9447000C9447000C94F3000C94470084
S11300300C9447000C946D000C9447000C944700FA
S11300400C9447000C9447000C9447000C94470010
S11300500C94470011241FBECFE5D8E0DEBFCDBF0E
S113006010E0A0E6B0E0EEECFAE002C005900D92DC
S1130070A636B107D9F720E0A6E6B0E001C01D928C
S1130080AF37B207E1F70E947C000C9465050C942D
S113009000009C0140E050E060E271EA87E090E0FB
S11300A00E943A022150310930BD29B988E98AB940
S11300B08EE880BD789408955D9BFECF8CB9089539
S11300C0CF93DF93EC0103C021960E945C008881EA
S11300D08111FACFDF91CF9108951F920F920FB63D
S11300E00F9211248F938CB180936A008F910F909B
S11300F00FBE0F901F90189580E895E20E9449006A
S113010081B3886081BB83B7886083BF83B7826013
S113011083BF12BE8AE08CBF89B7826089BF78949E
S113012081B3806181BB82B3877F82BB25E82A9536
S1130130F1F7000082B3886082BB85E88A95F1F705
S1130140000082B3877F82BB04C0109269001092C2
S11301506800829BFACF14C06091680070916900B6
S113016080E090E00E94AC0125EB34EB44E850E4DD
S11301700E940B010E947D017093670060936600EA
S11301808299EACF809167008F93809166008F9364
S113019080E690E09F938F938BE690E09F938F93FC
S11301A00E947B028BE690E00E9460009FEF20E7B4
S11301B082E0915020408040E1F700C0000080912F
S11301C06600909167000F900F900F900F900F9022
S11301D00F904F9720F082B3806182BBA4CF82B38B
S11301E08F7E82BBA0CF1F920F920FB60F92112465
S11301F08F939F93809168009091690001969093EA
S113020069008093680012BE9F918F910F900FBE7A
S11302100F901F9018950E941F010C9400020E94D9
S1130220F90158F00E94F20140F029F45F3F29F0EF
S11302300C94E90151110C9434020C94EF010E94C6
S1130240110268F39923B1F3552391F3951B550BD0
S1130250BB27AA2762177307840738F09F5F5F4F95
S1130260220F331F441FAA1FA9F335D00E2E3AF0D4
S1130270E0E832D091505040E695001CCAF72BD0EC
S1130280FE2F29D0660F771F881FBB1F261737073D
S11302904807AB07B0E809F0BB0B802DBF01FF276F
S11302A093585F4F3AF09E3F510578F00C94E90162
S11302B00C9434025F3FE4F3983ED4F3869577952B
S11302C06795B795F7959F5FC9F7880F911D969528
S11302D0879597F90895E1E0660F771F881FBB1F84
S11302E0621773078407BA0720F0621B730B840B31
S11302F0BA0BEE1F88F7E09508950E94190288F062
S11303009F5798F0B92F9927B751B0F0E1F0660FD5
S1130310771F881F991F1AF0BA95C9F714C0B13016
S113032091F00E943302B1E008950C943302672FD8
S1130330782F8827B85F39F0B93FCCF38695779545
S11303406795B395D9F73EF490958095709561952E
S11303507F4F8F4F9F4F0895E89409C097FB3EF459
S113036090958095709561957F4F8F4F9F4F9923FE
S1130370A9F0F92F96E9BB279395F695879577957C
S11303806795B795F111F8CFFAF4BB0F11F460FF3C
S11303901BC06F5F7F4F8F4F9F4F16C0882311F094
S11303A096E911C0772321F09EE8872F762F05C0A8
S11303B0662371F096E8862F70E060E02AF09A9543
S11303C0660F771F881FDAF7880F9695879597F938
S11303D0089597F99F6780E870E060E008959FEFC3
S11303E080EC089500240A941616170618060906C8
S11303F0089500240A941216130614060506089597
S1130400092E0394000C11F4882352F0BB0F40F41E
S1130410BF2B11F460FF04C06F5F7F4F8F4F9F4F5E
S1130420089557FD9058440F551F59F05F3F71F0E0
S11304304795880F97FB991F61F09F3F79F0879547
S11304400895121613061406551FF2CF4695F1DFD0
S113045008C0161617061806991FF1CF8695710560
S1130460610508940895E894BB2766277727CB0194
S113047097F90895052E97FB1EF400940E945102EB
S113048057FD07D00E94590207FC03D04EF40C9488
S1130490510250954095309521953F4F4F4F5F4FF6
S11304A0089590958095709561957F4F8F4F9F4FDC
S11304B00895A1E21A2EAA1BBB1BFD010DC0AA1FA1
S11304C0BB1FEE1FFF1FA217B307E407F50720F0B9
S11304D0A21BB30BE40BF50B661F771F881F991F34
S11304E01A9469F760957095809590959B01AC017D
S11304F0BD01CF010895AEE0B0E0E1E8F2E00C9474
S11305003C050D891E8986E08C831A8309838FEF4D
S11305109FE79E838D83AE01475E5F4F6F89788D21
S1130520CE0101960E949D02EF81F885E00FF11F34
S113053010822E96E4E00C945805ABE0B0E0E3EAB8
S1130540F2E00C942E056C017B018A01FC011782F8
S11305501682838181FFCCC1CE0101963C01F60154
S11305609381F70193FD859193FF81917F01882306
S113057009F4BAC1853239F493FD859193FF8191D1
S11305807F01853229F4B60190E00E949404E7CFFC
S1130590912C212C312CFFE1F315D8F08B3279F01A
S11305A038F4803279F08332A1F4232D20611DC008
S11305B08D3261F0803369F4232D216016C0832DC0
S11305C08260382EE32DE4603E2E2AC0F32DF860BD
S11305D01DC037FC2DC020ED280F2A3040F08E328C
S11305E0B9F436FC81C1232D2064322E19C036FEA5
S11305F006C08AE0989E200D1124922E11C0EAE0D4
S11306002E9E200D1124222EF32DF0623F2E08C0C1
S11306108C3621F4832D8068382E02C0883641F44C
S1130620F70193FD859193FF81917F018111B3CFF0
S1130630982F9F7D9554933028F40C5F1F4F9FE3B0
S113064099830DC0833631F0833771F0833509F017
S113065059C021C0F801808189830E5F1F4F88240F
S11306608394912C530113C02801F2E04F0E511CC6
S1130670F801A080B18036FE03C0692D70E002C08D
S11306806FEF7FEFC5010E9489044C018201F32DB5
S1130690FF773F2E16C0280122E0420E511CF801BC
S11306A0A080B18036FE03C0692D70E002C06FEFF8
S11306B07FEFC5010E947E044C01F32DF0683F2EAC
S11306C0820133FC1BC0822D90E088169906B0F499
S11306D0B60180E290E00E9494042A94F4CFF501DC
S11306E037FC859137FE81915F01B60190E00E944D
S11306F0940421102A9421E0821A9108811491040F
S113070071F7E8C0843611F0893641F5F80137FEF7
S113071007C060817181828193810C5F1F4F08C083
S113072060817181072E000C880B990B0E5F1F4F9F
S1130730F32DFF763F2E97FF09C090958095709515
S113074061957F4F8F4F9F4FF0683F2E2AE030E036
S1130750A3010E94D004882E861845C0853731F441
S1130760232D2F7EB22E2AE030E025C0932D997FD1
S1130770B92E8F36C1F018F4883579F0B5C08037BA
S113078019F0883721F0B0C0E92FE061BE2EB4FE25
S11307900DC0FB2DF460BF2E09C034FE0AC0292F02
S11307A02660B22E06C028E030E005C020E130E02B
S11307B002C020E132E0F801B7FE07C06081718118
S11307C0828193810C5F1F4F06C06081718180E03C
S11307D090E00E5F1F4FA3010E94D004882E86185C
S11307E0FB2DFF773F2E36FE0DC0232D2E7FA22E2C
S11307F0891458F434FE0BC032FC09C0832D8E7E5C
S1130800A82E05C0B82CA32C03C0B82C01C0B92C49
S1130810A4FE0FC0FE01E80DF11D8081803321F498
S11308209A2D997EA92E09C0A2FE06C0B394B39452
S113083004C08A2D867809F0B394A3FC11C0A0FEED
S113084006C0B21488F4280C922C9B180EC0B21463
S113085060F4B60180E290E00E949404B394F7CF70
S1130860B21418F42B1802C0982C212CA4FE10C02A
S1130870B60180E390E00E949404A2FE17C0A1FC9C
S113088003C088E790E002C088E590E0B6010CC0A0
S11308908A2D867859F0A1FE02C08BE201C080E265
S11308A0A7FC8DE2B60190E00E949404891438F408
S11308B0B60180E390E00E9494049A94F7CF8A945E
S11308C0F301E80DF11D8081B60190E00E949404CB
S11308D08110F5CF222009F442CEB60180E290E0E7
S11308E00E9494042A94F6CFF6018681978102C06F
S11308F08FEF9FEF2B96E2E10C944A05FC010590E3
S1130900615070400110D8F7809590958E0F9F1F0D
S11309100895FC016150704001900110D8F7809552
S113092090958E0F9F1F08950F931F93CF93DF937E
S1130930FB01238121FD03C08FEF9FEF2CC022FF19
S113094016C046815781248135814217530744F4E8
S1130950A081B1819D012F5F3F4F318320838C9310
S1130960268137812F5F3F4F3783268314C08B0145
S1130970EC01FB010084F185E02D0995892BE1F65A
S1130980D80116968D919C911797019617969C9372
S11309908E931697CE01DF91CF911F910F910895F9
S11309A0FA01AA27283051F1203181F1E8946F939C
S11309B06E7F6E5F7F4F8F4F9F4FAF4FB1E03ED042
S11309C0B4E03CD0670F781F891F9A1FA11D680FE0
S11309D0791F8A1F911DA11D6A0F711D811D911D13
S11309E0A11D20D009F468943F912AE0269F112488
S11309F03019305D3193DEF6CF010895462F4770EC
S1130A00405D4193B3E00FD0C9F7F6CF462F4F7046
S1130A10405D4A3318F0495D31FD4052419302D0A4
S1130A20A9F7EACFB4E0A69597958795779567954A
S1130A30BA95C9F700976105710508959B01AC014A
S1130A400A2E06945795479537952795BA95C9F771
S1130A50620F731F841F951FA01D08952F923F924C
S1130A604F925F926F927F928F929F92AF92BF92BA
S1130A70CF92DF92EF92FF920F931F93CF93DF9366
S1130A80CDB7DEB7CA1BDB0B0FB6F894DEBF0FBEC3
S1130A90CDBF09942A88398848885F846E847D8410
S1130AA08C849B84AA84B984C884DF80EE80FD8012
S1130AB00C811B81AA81B981CE0FD11D0FB6F89488
S1110AC0DEBF0FBECDBFED010895F894FFCF49
S1090ACE2025750D0A004D
S9030000FC
