S01700004763634170706C69636174696F6E322E737265635A
S11300000C942A000C9447000C9447000C9447006D
S11300100C9447000C9447000C9447000C94470040
S11300200C9447000C9447000C9447000C94470030
S11300300C9447000C9447000C9447000C94470020
S11300400C9447000C9447000C9447000C94470010
S11300500C94470011241FBECFE5D8E0DEBFCDBF0E
S113006010E0A0E6B0E0E8E9F2E002C005900D92ED
S1130070A438B107D9F720E0A4E8B0E001C01D928C
S1130080A538B207E1F70E942C010C944A010C94A4
S1130090000011B888E480B984E086BF089584EA3A
S11300A086BF06B607FEFDCF089584E986BF06B66F
S11300B004FCFDCF089590E0880F991F862B83B927
S11300C084E886BF06B607FEFDCF81B1887F089518
S11300D083B984E886BF06B607FEFDCF81B1887F69
S11300E00895813021F488E080936000089510928F
S11300F0600008951F93CF93DF93D82FC62F0E94DB
S11301004F0060E0809184000E945B001D2F1C2B37
S113011080916000812B0E9468000E9455000E941B
S11301204F0060E0809184000E945B008091600039
S1130130812B84600E9468000E9455008FE891E042
S11301400197F1F700C000000E944F0060E0809129
S113015084000E945B00DB7FCD2B809160008C2BA0
S11301600E9468000E9455008FE99FE00197F1F713
S113017000C00000DF91CF911F910895CF93C82F45
S113018060E0807F0E947A0060E08C2F8295807FFF
S11301900E947A00CF910895CF93C82F0E944900FE
S11301A081E00E9471008FE39CE90197F1F700C0A0
S11301B00000C093840082E00E94BE0088E20E9496
S11301C0BE008CE00E94BE0086E00E94BE0081E07A
S11301D00E94BE00CF910895CF93C82F61E0807F25
S11301E00E947A0061E08C2F8295807F0E947A00C1
S11301F0CF9108950F931F93CF93DF938C01C0E0A9
S1130200D0E003C00E94EC002196F801EC0FFD1F22
S113021080818111F7CFDF91CF911F910F910895C4
S1130220CF93DF93EA01613031F058F0623029F066
S1130230633029F007C090EC05C094E903C094ED45
S113024001C090E88F70892B0E94BE00CE010E94ED
S1130250FA00DF91CF91089582B3886082BB87E270
S11302600E94CC0041E650E060E080E00E94100172
S11302709A9B07C041E650E060E080E00E941001D4
S1130280F7CF9B9BF5CF42E750E060E080E00E940F
S10B02901001EECFF894FFCF3A
S113029801566F69636520636F6E742E206D6F64F9
S11302A86500204A6F79737469636B206D6F6465A8
S10702B820200000FE
S9030000FC
