S01700004763634170706C69636174696F6E342E7372656358
S11300000C942A000C9447000C9447000C9447006D
S11300100C9447000C9447000C9447000C94470040
S11300200C9447000C9447000C9447000C94470030
S11300300C9447000C945C000C9447000C9447000B
S11300400C9447000C9447000C9447000C94470010
S11300500C94470011241FBECFE5D8E0DEBFCDBF0E
S113006010E0A0E6B0E0E8E3F9E002C005900D92EC
S1130070A437B107D9F720E0A4E7B0E001C01D928E
S1130080A63BB207E1F70E94FB000C949A040C947F
S113009000009C0140E050E060E271EA87E090E0FB
S11300A00E946F012150310930BD29B988E98AB90C
S11300B08EE880BD789408951F920F920FB60F9228
S11300C011248F938CB1809375008F910F900FBE84
S11300D00F901F901895813021F488E08093600080
S11300E00895109260000895382F362B20916000F7
S11300F0232B28BB90916000932B946098BBEFE86E
S1130100F1E03197F1F700C000008B7F682B8091FC
S11301106000682B68BB8FE99FE00197F1F700C08E
S113012000000895CF93C82F60E0807F0E94740080
S113013060E08C2F8295807F0E947400CF91089597
S113014081E00E946B008FE39CE90197F1F700C006
S113015000008FEF87BB82E00E94920088E20E9439
S113016092008CE00E94920086E00E94920081E05E
S11301700E9492000895CF93C82F61E0807F0E946F
S1130180740061E08C2F8295807F0E947400CF916F
S113019008950F931F93CF93DF938C01C0E0D0E0B9
S11301A003C00E94BB002196F801EC0FFD1F808163
S11301B08111F7CFDF91CF911F910F910895CF93C4
S11301C0DF93EA01613031F058F0623029F0633096
S11301D029F007C090EC05C094E903C094ED01C078
S11301E090E88F70892B0E949200CE010E94C90072
S11301F0DF91CF9108950E94A00041E650E060E0B5
S113020080E00E94DF0080E895E20E94490081B30B
S11302108C6081BB8FEF84BB82B3837F846082BB9D
S11302202FE788E391E0215080409040E1F700C03F
S11302300000809175008093B50082B3837F88604D
S113024082BB2FE788E391E0215080409040E1F7A2
S113025000C00000809175008093B30082B38C606D
S113026082BB2FE788E391E0215080409040E1F782
S113027000C00000809175008093740082B3837F76
S113028082BB809174001F928F938091B3001F9260
S11302908F938091B5001F928F9384E690E09F9393
S11302A08F938FE990E09F938F930E94B0014FE961
S11302B050E060E080E00E94DF002FEF84E39CE0E8
S11302C0215080409040E1F700C000008DB79EB7F8
S11302D00A960FB6F8949EBF0FBE8DBF9DCF052E14
S11302E097FB1EF400940E94860157FD07D00E94DC
S11302F08E0107FC03D04EF40C9486015095409572
S1130300309521953F4F4F4F5F4F089590958095BD
S1130310709561957F4F8F4F9F4F0895A1E21A2EDC
S1130320AA1BBB1BFD010DC0AA1FBB1FEE1FFF1F95
S1130330A217B307E407F50720F0A21BB30BE40BE5
S1130340F50B661F771F881F991F1A9469F760952C
S11303507095809590959B01AC01BD01CF010895E6
S1130360AEE0B0E0E6EBF1E00C9471040D891E8977
S113037086E08C831A8309838FEF9FE79E838D83A6
S1130380AE01475E5F4F6F89788DCE0101960E9462
S1130390D201EF81F885E00FF11F10822E96E4E080
S11303A00C948D04ABE0B0E0E8EDF1E00C94630450
S11303B06C017B018A01FC0117821682838181FF13
S11303C0CCC1CE0101963C01F6019381F70193FD66
S11303D0859193FF81917F01882309F4BAC1853205
S11303E039F493FD859193FF81917F01853229F43E
S11303F0B60190E00E94C903E7CF912C212C312C47
S1130400FFE1F315D8F08B3279F038F4803279F0CB
S11304108332A1F4232D20611DC08D3261F080331D
S113042069F4232D216016C0832D8260382EE32DBC
S1130430E4603E2E2AC0F32DF8601DC037FC2DC0A9
S113044020ED280F2A3040F08E32B9F436FC81C1F9
S1130450232D2064322E19C036FE06C08AE0989EF1
S1130460200D1124922E11C0EAE02E9E200D11249D
S1130470222EF32DF0623F2E08C08C3621F4832DFA
S11304808068382E02C0883641F4F70193FD8591C7
S113049093FF81917F018111B3CF982F9F7D955454
S11304A0933028F40C5F1F4F9FE399830DC083366C
S11304B031F0833771F0833509F059C021C0F80158
S11304C0808189830E5F1F4F88248394912C53016C
S11304D013C02801F2E04F0E511CF801A080B18036
S11304E036FE03C0692D70E002C06FEF7FEFC501D7
S11304F00E94BE034C018201F32DFF773F2E16C0EC
S1130500280122E0420E511CF801A080B18036FE81
S113051003C0692D70E002C06FEF7FEFC5010E9438
S1130520B3034C01F32DF0683F2E820133FC1BC052
S1130530822D90E088169906B0F4B60180E290E02E
S11305400E94C9032A94F4CFF50137FC859137FE44
S113055081915F01B60190E00E94C90321102A94A1
S113056021E0821A91088114910471F7E8C084365D
S113057011F0893641F5F80137FE07C060817181B9
S1130580828193810C5F1F4F08C060817181072EA7
S1130590000C880B990B0E5F1F4FF32DFF763F2E37
S11305A097FF09C090958095709561957F4F8F4F07
S11305B09F4FF0683F2E2AE030E0A3010E9405041B
S11305C0882E861845C0853731F4232D2F7EB22E10
S11305D02AE030E025C0932D997FB92E8F36C1F0E3
S11305E018F4883579F0B5C0803719F0883721F0D0
S11305F0B0C0E92FE061BE2EB4FE0DC0FB2DF46047
S1130600BF2E09C034FE0AC0292F2660B22E06C0B0
S113061028E030E005C020E130E002C020E132E013
S1130620F801B7FE07C060817181828193810C5FFC
S11306301F4F06C06081718180E090E00E5F1F4F04
S1130640A3010E940504882E8618FB2DFF773F2EF8
S113065036FE0DC0232D2E7FA22E891458F434FEAD
S11306600BC032FC09C0832D8E7EA82E05C0B82C89
S1130670A32C03C0B82C01C0B92CA4FE0FC0FE01EA
S1130680E80DF11D8081803321F49A2D997EA92EE5
S113069009C0A2FE06C0B394B39404C08A2D867820
S11306A009F0B394A3FC11C0A0FE06C0B21488F4F0
S11306B0280C922C9B180EC0B21460F4B60180E290
S11306C090E00E94C903B394F7CFB21418F42B1826
S11306D002C0982C212CA4FE10C0B60180E390E047
S11306E00E94C903A2FE17C0A1FC03C088E790E0E2
S11306F002C088E590E0B6010CC08A2D867859F0D6
S1130700A1FE02C08BE201C080E2A7FC8DE2B6012B
S113071090E00E94C903891438F4B60180E390E0A4
S11307200E94C9039A94F7CF8A94F301E80DF11D4E
S11307308081B60190E00E94C9038110F5CF222088
S113074009F442CEB60180E290E00E94C9032A94E3
S1130750F6CFF6018681978102C08FEF9FEF2B962B
S1130760E2E10C947F04FC0105906150704001109B
S1130770D8F7809590958E0F9F1F0895FC016150C6
S1130780704001900110D8F7809590958E0F9F1FAF
S113079008950F931F93CF93DF93FB01238121FDD2
S11307A003C08FEF9FEF2CC022FF16C046815781F4
S11307B0248135814217530744F4A081B1819D01FE
S11307C02F5F3F4F318320838C93268137812F5FA6
S11307D03F4F3783268314C08B01EC01FB01008457
S11307E0F185E02D0995892BE1F6D80116968D91B6
S11307F09C911797019617969C938E931697CE010A
S1130800DF91CF911F910F910895FA01AA27283003
S113081051F1203181F1E8946F936E7F6E5F7F4FC9
S11308208F4F9F4FAF4FB1E03ED0B4E03CD0670F45
S1130830781F891F9A1FA11D680F791F8A1F911D98
S1130840A11D6A0F711D811D911DA11D20D009F4E8
S113085068943F912AE0269F11243019305D31932A
S1130860DEF6CF010895462F4770405D4193B3E013
S11308700FD0C9F7F6CF462F4F70405D4A3318F0BA
S1130880495D31FD4052419302D0A9F7EACFB4E06B
S1130890A6959795879577956795BA95C9F7009723
S11308A06105710508959B01AC010A2E06945795C4
S11308B0479537952795BA95C9F7620F731F841F1B
S11308C0951FA01D08952F923F924F925F926F92B1
S11308D07F928F929F92AF92BF92CF92DF92EF92CC
S11308E0FF920F931F93CF93DF93CDB7DEB7CA1B4D
S11308F0DB0B0FB6F894DEBF0FBECDBF09942A8878
S1130900398848885F846E847D848C849B84AA841F
S1130910B984C884DF80EE80FD800C811B81AA81AC
S1130920B981CE0FD11D0FB6F894DEBF0FBECDBF77
S10B0930ED010895F894FFCFD6
S1130938017777002530337520253033752025302D
S107094833752000DF
S9030000FC
