S00B0000706E752E73726563C6
S113000009C016C09DC014C013C012C011C010C0D6
S11300100FC0DBC011241FBECFE9CDBF20E0A0E696
S1130020B0E001C01D92A136B207E1F720D033C180
S1130030E7CF86B383FB882780F908958091600019
S1130040811102C0C098C19880916000813011F480
S1130050C09AC19880916000823011F4C098C19810
S113006080916000833011F4C098C19A08952FEBF9
S113007084ED91E0215080409040E1F700C0000001
S11300808CE090E0F4D08093600080916000813037
S113009031F0D0F08230F9F0833061F022C0C9DF52
S11300A0882321F083E0809360001BC082E080936A
S11300B0600017C0BEDF882321F081E080936000D8
S11300C010C0109260000DC0B4DF882351F081E0AD
S11300D08093600006C0ADDF882319F083E080932D
S11300E0600087B3836187BB8091600020E0C49A7D
S11300F08FE295E70197F1F700C00000C4988FE202
S113010095E70197F1F700C000002F5F8091600030
S1130110422F50E090E001964817590744F38BB7FB
S113012080628BBFBB98AB9A84DF811187DFBA985A
S11301303E98389A86B18F6886B9369A7894FFCFFC
S11301401F920F920FB60F9211242F933F934F9348
S11301505F936F937F938F939F93AF93BF93CF934B
S1130160DF93EF93FF9365DF2091600090E02170AF
S1130170C22F20E0D22F8C179D07A1F0C49A809142
S113018060008F5F8093600080916000843010F085
S11301901092600053DF8FE295E70197F1F700C0FA
S11301A00000C498FF91EF91DF91CF91BF91AF917F
S11301B09F918F917F916F915F914F913F912F917B
S11301C00F900FBE0F901F9018951F920F920FB6AD
S11301D00F9211242F933F934F935F936F937F93C9
S11301E08F939F93AF93BF93EF93FF9384B195B194
S11301F0843F914050F5609160008CE090E03ED0E7
S11302008091600020E0C49A8FE295E70197F1F7AE
S113021000C00000C4988FE295E70197F1F700C091
S113022000002F5F80916000422F50E090E0019623
S11302304817590744F3C49A9FEF22E587E0915089
S113024020408040E1F700C00000369AFF91EF9112
S1130250BF91AF919F918F917F916F915F914F91DA
S11302603F912F910F900FBE0F901F901895E19919
S1130270FECF8EBBE09A99278DB30895262FE1997E
S1130280FECF1CBA8EBB2DBB0FB6F894E29AE19A4E
S10D02900FBE01960895F894FFCF05
S9030000FC
