:020000040000FA
:100000000C945D000C9485000C9485000C94850084
:100010000C9485000C9485000C9485000C9485004C
:100020000C9485000C9485000C9485000C9485003C
:100030000C9485000C9485000C9485000C9485002C
:100040000C94EC0D0C9485000C94BA0D0C94940D4A
:100050000C9485000C9485000C9485000C9485000C
:100060000C9485000C94850000000008000201003B
:100070000003040700000000000000000000000072
:10008000250028002B0000000000240027002A0083
:10009000040404040404040402020202020203032E
:1000A0000303030301020408102040800102040836
:1000B0001020010204081020AE0E11241FBECFEF45
:1000C000D8E0DEBFCDBF13E0A0E0B1E0ECE7F8E29E
:1000D00002C005900D92AC34B107D9F726E0ACE42C
:1000E000B3E001C01D92AE38B207E1F710E0CDE5F4
:1000F000D0E004C02197FE010E942714CC35D1071F
:10010000C9F70E940A0F0C943C140C94000090E074
:10011000FC01EC55FF4F249180579F4FFC018491C7
:10012000882399F090E0880F991FFC01EA57FF4F50
:10013000A591B491FC01E458FF4F859194918FB73C
:10014000F894EC91E22BEC938FBF0895AF92BF929D
:10015000CF92DF92EF92FF920F931F93CF93DF9393
:100160006C017B018B01040F151FEB015E01AE18C2
:10017000BF08C017D10759F06991D601ED91FC91E4
:100180000190F081E02DC6010995892B79F7C50111
:10019000DF91CF911F910F91FF90EF90DF90CF9063
:1001A000BF90AF900895FC01538D448D252F30E012
:1001B000842F90E0821B930B541710F0CF96089574
:1001C00001970895FC01918D828D981761F0A28DA1
:1001D000AE0FBF2FB11D5D968C91928D9F5F9F7367
:1001E000928F90E008958FEF9FEF0895FC01918D1D
:1001F000828D981731F0828DE80FF11D858D90E08A
:1002000008958FEF9FEF0895FC01918D228D892F26
:1002100090E0805C9F4F821B91098F73992708950E
:100220008FE595E00E94040121E0892B09F420E08C
:10023000822F089580E090E0892B29F00E94100120
:1002400081110C9400000895FC01A48DA80FB92F12
:10025000B11DA35ABF4F2C91848D90E001968F73EE
:100260009927848FA689B7892C93A089B1898C910D
:10027000837080648C93938D848D981306C002885C
:10028000F389E02D80818F7D80830895EF92FF9226
:100290000F931F93CF93DF93EC0181E0888F9B8DA9
:1002A0008C8D98131AC0E889F989808185FF15C063
:1002B0009FB7F894EE89FF896083E889F989808186
:1002C0008370806480839FBF81E090E0DF91CF9155
:1002D0001F910F91FF90EF900895F62E0B8D10E077
:1002E0000F5F1F4F0F731127E02E8C8D8E110CC0E6
:1002F0000FB607FCFACFE889F989808185FFF5CF31
:10030000CE010E942401F1CFEB8DEC0FFD2FF11DEA
:10031000E35AFF4FF0829FB7F8940B8FEA89FB896D
:1003200080818062CFCF682F8FE595E00C944601E5
:10033000CF93DF93EC01888D8823B9F0AA89BB891C
:10034000E889F9898C9185FD03C0808186FD0DC007
:100350000FB607FCF7CF8C9185FFF2CF808185FF28
:10036000EDCFCE010E942401E9CFDF91CF91089516
:1003700090E0FC01E859FF4F2491FC01EC55FF4F40
:100380003491FC01E057FF4FE491EE23C9F02223A2
:1003900039F0233001F1A8F4213019F1223029F18C
:1003A000F0E0EE0FFF1FE458FF4FA591B4918FB717
:1003B000F894EC91611126C030953E233C938FBF99
:1003C00008952730A9F02830C9F0243049F78091EA
:1003D00080008F7D03C0809180008F7780938000A4
:1003E000DFCF84B58F7784BDDBCF84B58F7DFBCF26
:1003F0008091B0008F778093B000D2CF8091B00011
:100400008F7DF9CF3E2BDACF2FB7F8946091580348
:100410007091590380915A0390915B032FBF089507
:100420008FB7F89480914D038FBF089561E0FC0170
:1004300084810E94B80180914C03811110924C0379
:1004400008958EBD00000DB407FEFDCF8EB5089552
:100450008FEF0C9421020F931F93CF93DF93EC0146
:100460000E9404028B010E9428028F3F69F00E94C3
:100470000402601B710B6C177D07A8F380E0DF910D
:10048000CF911F910F91089581E0F9CF8CBD9DBD53
:100490000895CF93DF93EC0180914C03811109C043
:1004A00081E080934C038091FC059091FD050E94B2
:1004B000460260E08C81DF91CF910C94B8018F925D
:1004C0009F92AF92BF92FF920F931F93CF93DF93B0
:1004D000EC01F62E49015A018E81882389F08F8123
:1004E00098859C012F5F3F4F38872F838230924041
:1004F00018F40E942802F3CFCE010E9416021E8239
:10050000CE010E9449028CE291E00E942B028F2DC5
:1005100080640E94210208E110E0D501C401002E90
:1005200004C0B695A795979587950A94D2F70E942F
:10053000210208501109083F8FEF180771F785E96C
:10054000FF2021F028E087E8F2128FEF0E942102BD
:1005500010E00E9428028A8787FF04C01F3F11F025
:100560001F5FF7CFDF91CF911F910F91FF90BF9049
:10057000AF909F908F900895AF92BF92CF92DF92ED
:10058000EF92FF920F931F93CF93DF93EC016901DA
:10059000C801820F931F8130924050F58E818823CD
:1005A00079F088819981AA81BB8184179507A60774
:1005B000B70731F48F819885C816D90608F042C074
:1005C000488359836A837B838B85833039F089E044
:1005D000440F551F661F771F8A95D1F79A01AB010B
:1005E00061E1CE010E945F02882389F083E08D8360
:1005F000CE010E94160280E0DF91CF911F910F91F2
:10060000FF90EF90DF90CF90BF90AF9008950E9441
:1006100004025B010E9428028A878F3F69F40E94CE
:1006200004026A197B096D327140A0F38FE08D835B
:10063000CE010E941602DCCF8E3F89F418861F82FD
:1006400081E08E838F8198858C159D0550F40E94E2
:1006500028028F819885019698878F83F3CF8DE04C
:10066000E6CF6701E00EF11E0E942802F601819399
:100670006F01EE15FF05C1F78F819885080F191FCF
:1006800018870F838985882319F001151240A0F07F
:100690008E81882389F08F8198859C012F5F3F4F41
:1006A00038872F838230924018F40E942802F3CFBB
:1006B000CE010E9416021E8281E09ECFCF92DF9271
:1006C000EF92FF920F93CF93DF93EC01690182E1E8
:1006D000411551056105710599F08B85833039F01D
:1006E00089E0440F551F661F771F8A95D1F79A013D
:1006F000AB0168E1CE010E945F02882319F084E01B
:100700008D832DC08EEF0E94210276018EEFD81AC4
:10071000F70181917F010E942102EC14FD04C1F7D1
:100720008FEF0E9421028FEF0E9421020E94280277
:100730008A878F71853071F4011116C0CE010E9435
:10074000160281E0DF91CF910F91FF90EF90DF9043
:10075000CF90089581E18D83CE010E941602CE01D3
:100760000E94160280E0EECF88E592E00E942B0204
:10077000811102C085E1C4CF20E030E0A9016DE025
:10078000CE010E945F02882311F084E1B9CF0E945C
:1007900028028111FACFD2CF0F9340914F0350918D
:1007A0005003609151037091520341155105610549
:1007B000710599F0082F2DE533E080915D0590914A
:1007C0005E050E945E03882349F010924F03109249
:1007D0005003109251031092520381E00F9108953B
:1007E0000F93CF93C82F80914E03811105C0C1E0B4
:1007F0008C2FCF910F9108954091000150910101EC
:1008000060910201709103010C2F2DE533E080917E
:100810005D0590915E050E945E03811102C0C0E0FB
:10082000E7CFCC2321F381E00E94CC038823B9F3E6
:1008300010924E03DDCF8F929F92AF92BF92EF92B4
:10084000FF920F931F93CF934B015C01C42F8091B4
:10085000000190910101A0910201B091030188155E
:100860009905AA05BB0551F181E00E94F0038111B1
:100870000BC080E0CF911F910F91FF90EF90BF9040
:10088000AF909F908F9008958DE5E82E83E0F82E2D
:1008900000E012E030E020E0B501A40180915D05A8
:1008A00090915E050E94BC02882319F3809200019A
:1008B00090920101A0920201B092030140914E0377
:1008C0004C2B40934E0381E0D5CF8F929F92AF92F5
:1008D000BF92CF92DF92EF92FF92CF9322E836E061
:1008E00030935E0520935D05882309F46DC040E0D8
:1008F00060E070E0CB010E941B0481110BC080E01E
:10090000CF91FF90EF90DF90CF90BF90AF909F90EE
:100910008F90089580911B058F7789F78091270527
:1009200090912805A0912905B0912A05843691055A
:10093000A105B10520F3C0902305D0902405E090D7
:100940002505F0902605C114D104E104F104B9F2A3
:1009500040E0C701B6010E941B04882381F2809108
:100960006803909169038115924049F6A0916D0347
:10097000AA2329F260916B0370916C0361157105D4
:1009800009F4BDCF20916A03222309F4B8CFA093C4
:1009900076062093680690E080E030E0E1E0F0E049
:1009A000C82FAF01082E02C0440F551F0A94E2F76A
:1009B0002417350769F041E0480F01968930910509
:1009C00079F7409371069BCFC12CD12C7601C0CF13
:1009D00080937106209173033091740350E040E0DE
:1009E0002115310541F4209181033091820340911A
:1009F0008303509184032093690630936A064093E1
:100A00006B0650936C0646015701860E971EA11C7B
:100A1000B11C8092770690927806A0927906B092E7
:100A20007A06E0916E03F0916F03F0937D06E093F8
:100A30007C06B0E00E941C14DC01CB01880D991DDE
:100A4000AA1DBB1D80937E0690937F06A09380060F
:100A5000B093810625E0EE0FFF1F2A95E1F7E150E4
:100A6000FE4FEF2FFF27E6958E0F9F1FA11DB11D93
:100A70008093720690937306A0937406B0937506E4
:100A80008090700390907103B12CA12C811491047B
:100A900041F480907D0390907E03A0907F03B090FE
:100AA0008003C81AD90AEA0AFB0AC80CD91CEA1C36
:100AB000FB1C04C0F694E794D794C794CA95D2F768
:100AC000C0926D06D0926E06E0926F06F0927006AC
:100AD00085EFC8168FE0D806E104F10428F48CE015
:100AE00080937B0681E00CCF80E125EFC2162FEFCB
:100AF000D206E104F104A0F38091890390918A0366
:100B0000A0918B03B0918C0380937E0690937F0617
:100B1000A0938006B093810680E2E2CF4F925F926D
:100B20006F927F928F929F92AF92BF92CF92DF92FD
:100B3000EF92FF920F931F93CF93DF93EC0142301C
:100B400051056105710590F480E0DF91CF911F910F
:100B50000F91FF90EF90DF90CF90BF90AF909F905C
:100B60008F907F906F905F904F90089589859A85C0
:100B7000AB85BC850196A11DB11D84179507A607FD
:100B8000B70710F3CB88DC88ED88FE888F89803129
:100B900009F042C0BB27A72F962F852F4801590186
:100BA0002A013B01C80ED91EEA1EFB1E80910001DE
:100BB00090910101A0910201B0910301C816D906DC
:100BC000EA06FB0699F58F898031C1F5B301A201D0
:100BD000552766277727440F551F435A5C4FFA0164
:100BE0009182808280914E03816080934E038A8936
:100BF000823080F08D819E81AF81B8858C0D9D1DE6
:100C0000AE1DBF1D80934F0390935003A0935103DB
:100C1000B093520381E099CFDB01CA01E7E0B695BA
:100C2000A79597958795EA95D1F7B8CF40E0C7018A
:100C3000B6010E941B048111C6CF86CFB301A20169
:100C40004F77552766277727440F551F440F551FA9
:100C5000435A5C4FFA0180829182A282B382C2CF52
:100C60008F929F92AF92BF92CF92DF92EF92FF92BC
:100C70000F931F93CF93DF93FC0181859285A3850A
:100C8000B4850196A11DB11D84179507A607B70766
:100C900070F480E0DF91CF911F910F91FF90EF9062
:100CA000DF90CF90BF90AF909F908F9008958388F2
:100CB0009488A588B6888789803189F5BB27A72FB6
:100CC000962F852FE9016A017B018F01BC01CD01BF
:100CD000680D791D8A1D9B1D809000019090010177
:100CE000A0900201B090030186169706A806B906E7
:100CF00001F5F8018789803111F5DD24EE24FF2408
:100D0000F601EE0FFF1FE35AFC4F80819181B0E0A6
:100D1000A0E088839983AA83BB8381E0BBCFDB01FA
:100D2000CA01C7E0B695A79597958795CA95D1F75B
:100D3000C9CF40E00E941B048111DBCFAACFE89409
:100D4000C7F8DD24EE24FF24F601EE0FFF1FEE0F9F
:100D5000FF1FE35AFC4F80819181A281B381BF7054
:100D6000D8CF8F929F92AF92BF92CF92DF92EF92A5
:100D7000FF920F931F93CF93DF93EC018D8181112D
:100D80000EC080E0DF91CF911F910F91FF90EF9007
:100D9000DF90CF90BF90AF909F908F9008950B8978
:100DA0001C892D893E89041715072607370748F344
:100DB0004A015B01823031F48A869B86AC86BD860F
:100DC00081E0E0CF81149104A104B10449F41E82B2
:100DD0001F82188619861A861B861C861D86F0CFF0
:100DE0000A851B852C853D85EB8DFC8D858590E0E6
:100DF0000996B901A8014150510961097109082EEC
:100E000004C076956795579547950A94D2F7750172
:100E10006401E1E0CE1AD108E108F10804C0F694BB
:100E2000E794D794C7948A95D2F7C416D506E606F8
:100E3000F70620F0012B022B032B11F58F89988DDB
:100E4000A98DBA8D8E839F83A887B9878E010A5F8B
:100E50001F4FC114D104E104F10409F4ADCF4E8158
:100E60005F816885798598018B8D9C8D0E94300605
:100E700091E0C91AD108E108F1088111EACF81CFC8
:100E8000C41AD50AE60AF70AE1CF3F924F925F9261
:100E90006F927F928F929F92AF92BF92CF92DF928A
:100EA000EF92FF920F931F93CF93DF93CDB7DEB7EF
:100EB0002C970FB6F894DEBF0FBECDBF5C01DC01EE
:100EC0005B968D909C905C9716964D905D906D9082
:100ED0007C901997411451046104710409F468C0AD
:100EE000BFEF4B1A5B0A6B0A7B0A312CF401818538
:100EF0009285A385B4859C01AD012F5F3F4F4F4F75
:100F00005F4F29873A874B875C87730162011D8297
:100F10001E821F821886F40181859285A385B4857F
:100F20002D813E814F815885281739074A075B0775
:100F300008F056C089859A85AB85BC858C159D05C2
:100F4000AE05BF0550F482E0C82ED12CE12CF12C67
:100F500092E0492E512C612C712C9E012F5F3F4F46
:100F6000B701A601C4010E9430068823C9F1898116
:100F70009A81AB81BC81892B8A2B8B2B09F12601AD
:100F800037019FEF491A590A690A790A2D813E8172
:100F90004F8158852F5F3F4F4F4F5F4F2D833E83CB
:100FA0004F8358873FEFC31AD30AE30AF30AB3CF3C
:100FB000F40140805180628073803324339496CF53
:100FC000C414D504E604F70409F70FEF1FEF2FEF61
:100FD0003FE0B701A601C4010E948E05811119C02E
:100FE00080E02C960FB6F894DEBF0FBECDBFDF9128
:100FF000CF911F910F91FF90EF90DF90CF90BF9016
:10100000AF909F908F907F906F905F904F903F90A8
:101010000895D50116964D915D916D917C9119972A
:10102000411551056105710539F097018601C4012B
:101030000E948E058823A1F2D5011696CD92DD92ED
:10104000ED92FC921997332051F0D701C601019619
:10105000A11DB11DF40180839183A283B383F501A7
:101060008789908DA18DB28D892B8A2B8B2B39F49A
:101070008481C78AD08EE18EF28E80688483F501E8
:1010800084818062848381E0ACCF2F923F924F9223
:101090005F926F927F928F929F92AF92BF92CF9208
:1010A000DF92EF92FF920F931F93CF93DF9300D0C5
:1010B00000D0CDB7DEB7FC018581823098F0428543
:1010C000538564857585DB01CA0115E0B695A79542
:1010D000979587951A95D1F7282F2F702A838481A9
:1010E00080FD03C090E080E0F7C083899489A589E2
:1010F000B689312C212C481759076A077B0719F04C
:1011000022242394312C6F012101CE0101963C0150
:10111000DF011696BC83AB834114510409F4C5C0AA
:10112000F60142855385648575854A01F1E09F2269
:10113000D6015B968D919C915C978A019B01E9E0B9
:101140003695279517950795EA95D1F71596EC9161
:10115000E230E9F5FC01628D738D848D958D600F11
:10116000711F821F931FA12C22E0B22EA818B9086C
:101170004A145B0408F45201F601248126FD04C0E0
:10118000A114F2E0BF0671F4009100011091010179
:10119000209102013091030106171707280739072C
:1011A00009F05EC040E00E941B04882309F49ACF36
:1011B000C401835A9C4FD301AC014A0D5B1DFC0155
:1011C000E417F50709F46CC021912D93F9CFDC01E8
:1011D0001496BC90BA94B0228114910479F4B110A1
:1011E0000DC0452B462B472B69F5F6018789908D5D
:1011F000A18DB28D86839783A087B187D6015B9638
:10120000ED91FC915C9716966D917D918D919C91DD
:1012100019976250710981099109258504C0660FEB
:10122000771F881F991F2A95D2F706851785208971
:101230003189600F711F821F931F6B0D711D811DFE
:10124000911D91CFD60116964D915D916D917C9136
:1012500019972B813C810E9430068111CFCF42CF5C
:10126000730185019401AB01BC0180915D059091F2
:101270005E050E94BC02882309F434CF6A0C7B1CF3
:10128000F60182859385A485B5858A0D9B1DA11DD8
:10129000B11D82879387A487B5874A185B083CCF26
:1012A000E81BF90B6E0E7F1EEBCF2A94232809F062
:1012B00019CFF60182859385A485B5854F96A11D2A
:1012C000B11D82879387A487B5872A81F0E22F9F7B
:1012D000C0011124835A9C4F0F900F900F900F90D4
:1012E000DF91CF911F910F91FF90EF90DF90CF9002
:1012F000BF90AF909F908F907F906F905F904F9036
:101300003F902F9008951F93CF93DF93EC01162FFA
:101310008C8187FF2AC06E857F858889998941E005
:101320000E941B04882361F1EA8980E2E89FF001B2
:101330001124E35AFC4F309719F18D81823040F42B
:101340008B899C89AD89BE89848F958FA68FB78F35
:101350008F89988D938F828F8F89988DA98DBA8D63
:10136000B58BA48B8C818F778C83111103C08C81FA
:101370008F7E8C83812FDF91CF911F910C94F0038E
:1013800080E0DF91CF911F910895FF920F931F93FB
:10139000CF93DF93EC018D81813041F090E080E0CC
:1013A000DF91CF911F910F91FF9008958C8181FF64
:1013B000F5CF82FD1EC000915D0510915E05C8014C
:1013C0000E9449020E942802F82EC8010E941602BB
:1013D0008FEFF812E3CF8C8185FF1EC08D818823AB
:1013E00021F060E0CE010E9483098C818F7D8C8387
:1013F000D5CF4B895C896D897E898A859B85AC8533
:10140000BD8584179507A607B707A9F2CE010E94EC
:10141000B1068111D0CFC2CF40914F0350915003FC
:101420006091510370915203452B462B472B21F0BD
:1014300080E00E94CC03B2CF80618C832A853B85FB
:10144000317080E092E0821B930BAACF9F92AF9203
:10145000BF92CF92DF92EF92FF920F931F93CF93A1
:10146000DF9300D000D01F92CDB7DEB78C016D8323
:10147000DC0115968C911597813009F0B9C014964E
:101480008C9181FFB5C082FD9FC0D8015B96ED9124
:10149000FC915C971A96AD90BD90CD90DC901D9715
:1014A00094809A94B601A50189E076956795579541
:1014B00047958A95D1F79422B1E0BB22992009F48F
:1014C0009FC0D8015B96ED91FC915C971696CD90EC
:1014D000DD90ED90FC901997B2E0CB1AD108E108AD
:1014E000F108858504C0CC0CDD1CEE1CFF1C8A9520
:1014F000D2F74685578560897189C40ED51EE61ED0
:10150000F71EC90CD11CE11CF11CA114B10409F097
:101510000AC1F8014285538564857585838994895C
:10152000A589B689481759076A077B0708F4FBC0E5
:1015300081E00E94F003882309F45AC0C0920001A0
:10154000D0920101E0920201F092030180914E03DA
:10155000816080934E03F501E35AFC4F8D818083B7
:10156000F80182859385A485B5850196A11DB11DDD
:1015700082879387A487B58743895489658976894B
:10158000481759076A077B0738F42481838B948BAB
:10159000A58BB68B20682483D80114968C9183FD8B
:1015A0009FC081E090E00F900F900F900F900F90F0
:1015B000DF91CF911F910F91FF90EF90DF90CF902F
:1015C000BF90AF909F900895F80143895489658931
:1015D000768982859385A485B585481759076A075A
:1015E0007B0709F452CFC8010E94B10681114DCF8B
:1015F00081E090E0D80113969C938E93129749C096
:10160000D80116964D915D916D917C911997A11419
:10161000B10409F071C0411551056105710589F5E5
:1016200057968D919D910D90BC91A02D0097A1058D
:10163000B10509F04FC0C8010E9445078823C1F2D7
:10164000D8015B96ED91FC915C971696CD90DD905C
:10165000ED90FC901997B2E0CB1AD108E108F1089F
:10166000858504C0CC0CDD1CEE1CFF1C8A95D2F7CE
:101670004685578560897189C40ED51EE61EF71E02
:1016800048CF9E012F5F3F4FCF010E94300681114E
:1016900003C090E080E087CF89819A81AB81BC81D3
:1016A000F801238D348DF901278948EF5FEF60E061
:1016B00070E0203121F048EF5FEF6FEF7FE084179B
:1016C0009507A607B70730F0C8010E9445078111AA
:1016D000F8CE8ECFF80186839783A087B187F1CEAD
:1016E000F8018581882309F483CF61E0C8010E9455
:1016F0008309811156CF7CCF6A017B01B2E0CB1AFE
:10170000D108E108F108858504C0CC0CDD1CEE1C75
:10171000FF1C8A95D2F74685578560897189C40E6A
:10172000D51EE61EF71E41E0C701B6010E941B044C
:10173000811111CF5DCF0895FC0101900020E9F7E0
:101740003197AF01481B590BBC018FE595E00C9414
:10175000A60082E291E00C949C0B8F929F92AF9234
:10176000BF920F931F93CF93DF93CDB7DEB7A197AF
:101770000FB6F894DEBF0FBECDBF19A2423008F4F9
:101780004AE08E010F5D1F4F842E912CB12CA12CAD
:10179000A50194010E94FA13E62FB901CA01EA30AB
:1017A000F4F4E05DD801EE938D01232B242B252B3F
:1017B00079F790E080E0109719F0CD010E949C0B22
:1017C000A1960FB6F894DEBF0FBECDBFDF91CF91CB
:1017D0001F910F91BF90AF909F908F900895E95CFB
:1017E000E1CF0C949C0BCF93DF9300D01F92CDB729
:1017F000DEB76AE00E94EE13805D8983905D9A8374
:101800001B82CE0101960E94F10B0F900F900F905A
:10181000DF91CF910895CF93DF930E949C0BEC0151
:101820000E94A90B8C0F9D1FDF91CF9108952F92DD
:101830003F924F925F926F927F928F929F92AF9260
:10184000BF92CF92DF92EF92FF920F931F93CF93AD
:10185000DF93CDB7DEB76D970FB6F894DEBF0FBE3E
:10186000CDBF7C01FC01168217821086118612867C
:10187000138614861586A62EB12C7AE1872E71E088
:10188000972E77247394E2E06E2E660EC7010E94B5
:1018900045088C01009709F42EC1FC018081882342
:1018A00009F429C1853E91F38E3281F3838583FD4E
:1018B000EDCFD12C8D2D0D2C000C990B8A159B058D
:1018C0002CF480E20E949301D394F4CF6801412C60
:1018D000312CF60181916F01803279F0F8E03F12EE
:1018E00004C043948EE20E949301F6013197608117
:1018F0008FE595E00E944601439433948BE03812C3
:10190000E8CFF80183858871803121F48FE20E944D
:1019100093014394FDE080E2F415C8F7F801C08C10
:10192000D18CB601672F772766956454784F90E085
:1019300080E04AE00E94AD0B8DE20E949301C60157
:1019400055E0969587955A95E1F78F700E94F30BB5
:101950008DE20E9493018C2D8F710E94F30B80E227
:101960000E949301F801C688D7888D2D86958695AB
:1019700086950E94F30B8AE30E949301C60165E0FD
:10198000969587956A95E1F78F730E94F30B8AE32A
:101990000E9493018C2D8F71880F0E94F30BF80128
:1019A00083858871803159F080E20E949301F801AB
:1019B000648D758D868D978D4AE00E94AD0B0E94D7
:1019C000A90BF80183858871803109F05FCFF70199
:1019D00042855385648575851A012B0125E056944F
:1019E0004794379427942A95D1F781010150110922
:1019F0001C821B829A8289821E82838D948D9D8F88
:101A00008C8FA80135E0440F551F3A95E1F770E03F
:101A100060E0C7010E94B106882309F452C0C701E3
:101A20000E944508009709F44CC0FC01808188237E
:101A300009F447C0853E09F444C08E3209F441C020
:101A40000F7080E2089FF0011124E35AFC4F2385B8
:101A50000B8B8091000190910101A0910201B09146
:101A600003018F87988BA98BBA8B4489558970E0C5
:101A700060E0BA0155274427828D938DB0E0A0E045
:101A8000482B592B6A2B7B2B488F598F6A8F7B8F62
:101A9000287119F5848D958DA68DB78D8C8B9D8BB6
:101AA000AE8BBF8B7E827D821F82188619861A8636
:101AB0001B861C861D861E86662DCE0101960E9401
:101AC000170CA10185E0440F551F8A95E1F770E0DE
:101AD00060E0C7010E94B106D9CE203191F79E0186
:101AE0002C5E3F4F8C8D9D8D0E94360E882349F3CE
:101AF000E4E0EE83D8CF6D960FB6F894DEBF0FBE4C
:101B0000CDBFDF91CF911F910F91FF90EF90DF90AC
:101B1000CF90BF90AF909F908F907F906F905F908D
:101B20004F903F902F9008951F920F920FB60F92F3
:101B300011242F933F934F935F936F937F938F93D2
:101B40009F93AF93BF93EF93FF938FE595E00E9430
:101B50002401FF91EF91BF91AF919F918F917F9160
:101B60006F915F914F913F912F910F900FBE0F900A
:101B70001F9018951F920F920FB60F9211242F935A
:101B80008F939F93EF93FF93E0916F05F091700512
:101B90008081E0917505F091760582FD1BC09081F2
:101BA000809178058F5F8F7320917905821741F0BE
:101BB000E0917805F0E0E15AFA4F958F809378052F
:101BC000FF91EF919F918F912F910F900FBE0F90EA
:101BD0001F9018958081F4CF1F920F920FB60F922D
:101BE00011242F933F938F939F93AF93BF93809133
:101BF000580390915903A0915A03B0915B0330911F
:101C0000570323E0230F2D3758F50196A11DB11D71
:101C1000209357038093580390935903A0935A033A
:101C2000B0935B038091530390915403A0915503AB
:101C3000B09156030196A11DB11D8093530390935B
:101C40005403A0935503B0935603BF91AF919F9156
:101C50008F913F912F910F900FBE0F901F9018956D
:101C600026E8230F0296A11DB11DD2CF4F925F929D
:101C70006F927F92AF92BF92CF92DF92EF92FF92DC
:101C80000F931F93CF93DF9300D000D0CDB7DEB773
:101C90008C0149835A836B837C835901C12CD12CDD
:101CA0007601412C82E0582E612C712C49815A8199
:101CB0006B817C819E012F5F3F4FC8010E943006DF
:101CC000882339F1F8018585A301920104C0220F10
:101CD000331F441F551F8A95D2F7DA01C901C80E78
:101CE000D91EEA1EFB1E49815A816B817C8187893E
:101CF000803111F188EF9FEFAFEFBFE04817590730
:101D00006A077B0798F2F501C082D182E282F382F2
:101D100081E00F900F900F900F90DF91CF911F9166
:101D20000F91FF90EF90DF90CF90BF90AF907F909A
:101D30006F905F904F90089588EF9FEFA0E0B0E024
:101D4000DDCFCF93DF934AE00E94AD0BEC010E9400
:101D5000A90B8C0F9D1FDF91CF910895EFE5F5E062
:101D60001382128288EE93E0A0E0B0E08483958332
:101D7000A683B78388E091E09183808385EC90E02F
:101D80009587848784EC90E09787868780EC90E045
:101D9000918B808B81EC90E0938B828B82EC90E036
:101DA000958B848B86EC90E0978B868B118E128EB0
:101DB000138E148EECEFF5E080E580831182EEEF58
:101DC000F5E0158216821186138642E050E060E04D
:101DD00070E0448755876687778713A215A614A6F7
:101DE0008AE191E093A782A717A6E2E8F6E01582C0
:101DF000168211861386E4E6F6E0408351836283FF
:101E00007383178AE7E4F6E013821282918380835A
:101E100015820895789484B5826084BD84B581600C
:101E200084BD85B5826085BD85B5816085BD8091A5
:101E30006E00816080936E0010928100809181001D
:101E40008260809381008091810081608093810015
:101E5000809180008160809380008091B1008460D7
:101E60008093B1008091B00081608093B000809138
:101E70007A00846080937A0080917A0082608093F7
:101E80007A0080917A00816080937A0080917A0054
:101E9000806880937A001092C100E0916F05F09104
:101EA000700582E08083E0916B05F0916C051082F3
:101EB000E0916D05F0916E058FEC808310927705AF
:101EC000E0917305F091740586E08083E0917105DF
:101ED000F0917205808180618083E0917105F091BD
:101EE0007205808188608083E0917105F0917205B0
:101EF000808180688083E0917105F0917205808116
:101F00008F7D808385E291E00E94F10B10928D0617
:101F100010928B0610928806109287068AE08093B2
:101F200086060E940402EB01809186060E948700CB
:101F300061E0809186060E94B8011FB7F8948091F5
:101F40005C03811124C0EAE9F0E08491EEEAF0E05C
:101F50009491E82FF0E0EE0FFF1FEA57FF4FA59195
:101F6000B491EC91E92321F461E08AE00E94B80188
:101F70008AE00E9487008CB580618CBD8CB580643E
:101F80008CBD8DE00E9487008BE00E9487008091CD
:101F90005C038F5F80935C031FBF82E58093FC0529
:101FA0001092FD058091FC059091FD050E9446026E
:101FB0001AE08FEF0E9421021150D9F782E896E0D3
:101FC0000E94490220E030E0A90160E082E896E04A
:101FD0000E945F02182F80938C068130F9F00E94D6
:101FE00004026C1B7D0B613D774060F381E08093C0
:101FF000870682E896E00E9416028BE791E00E9435
:102000000B0C83EA91E00E940B0C89EB91E00E949B
:102010000B0C83ED91E00E940B0CFFCF2AEA31E01C
:1020200040E050E068E082E896E00E945F0282FFB4
:102030002AC010938D0680918D06C12CD12C76017B
:10204000823029F4C12CD12CE12C50E4F52E20E073
:1020500030E0A90167E382E896E00E945F02A701F1
:10206000960169E282E896E00E945F0280938C0606
:102070008823C1F00E9404026C1B7D0B613D7740F8
:1020800030F388E0B4CF14E00E94280280938C06DD
:102090001150D1F78A3A11F082E0A9CF82E0809303
:1020A0008D06C9CF80918D068230D1F420E030E0DA
:1020B000A9016AE382E896E00E945F02882311F09A
:1020C00086E095CF0E942802807C803C19F483E052
:1020D00080938D060E9428020E9428020E942802F6
:1020E00082E896E00E94160280E58093FC0510923B
:1020F000FD058EE391E00E940B0C0E94A90B87E680
:1021000091E00E94F10B80918D068230B1F0833016
:10211000B9F08130C1F487E192E00E940B0C81E0BC
:102120000E946504811112C00E94650481110EC0D5
:102130008CE292E00E940B0CFFCF8BE192E0EDCF9E
:102140008FE192E0EACF84E292E0E7CF86E792E087
:102150000E94F10B60916D0670916E0680916F0682
:10216000909170060E94A10E8AE892E00E94F10B05
:102170006091680670E090E080E04AE00E94AD0B5C
:102180000E94A90B8EE992E00E94F10BA0916806D3
:1021900020916D0630916E0640916F065091700649
:1021A000B0E00E941C140E94A10E0E94A90B82EBB9
:1021B00092E00E94F10B60917B0670E090E080E07D
:1021C0004AE00E94AD0B0E94A90BA09168062091E5
:1021D0006D0630916E0640916F0650917006B0E02A
:1021E0000E941C146B017C0189EC92E00E94F10BAF
:1021F000C701B60196958795779567950E94A10EC0
:102200008DED92E00E94F10B4BE0F694E794D794A9
:10221000C7944A95D1F7C701B6010E94A10E81EF7C
:1022200092E00E94F10BC701B6010E94C51220E0A6
:1022300030E040E85AE30E947C136B017C01AC0162
:102240009B010E94E913882309F457C085E093E0BD
:102250000E949C0B0E94A90B81E193E00E940B0C51
:1022600080914C068111E0C080917B06803109F09D
:10227000BEC082E080934C0610925E0610925F060C
:10228000109260061092610680917C0690917D0606
:10229000B0E0A0E025E0880F991FAA1FBB1F2A9578
:1022A000D1F780935A0690935B06A0935C06B09397
:1022B0005D0684E696E0909363068093620681E073
:1022C00080934B0610924D0610924E0610924F06C8
:1022D0001092500610925106109252061092530618
:1022E00010925406109255061092560610925706F8
:1022F000109258061092590697C02FEF3FEF4FE704
:102300005FE7C701B6010E94E91381110DC02FEFED
:102310003FEF4FE75FE7C701B6010E949112181621
:102320001CF489E093E094CF2FEF3FEF4FE75FE499
:10233000C701B6010E94771318161CF48DE093E0D4
:1023400087CF2FEF3FEF4FE75FECC701B6010E9449
:10235000911287FDF3CF2AE037ED43EA5BE3C70133
:10236000B6010E9425124B015C010E9496126B017E
:102370007C010E94C5129B01AC01C501B4010E9401
:1023800024124B015C014AE0C701B6010E94AD0B6B
:102390008EE20E94930120E030E040E251E4C5016A
:1023A000B4010E947C134B015C010E9496126B01E8
:1023B000F12CE12C4AE0C701B6010E94AD0BC70128
:1023C000B6010E94C5129B01AC01C501B4010E9477
:1023D000241220E030E040E251E40E947C130E948D
:1023E000961290E080E04AE00E94AD0B33CF80323D
:1023F000D9F483E080934C0640917E0650917F068D
:10240000609180067091810640935E0650935F064E
:1024100060936006709361062AE536E084E696E0F4
:102420000E94360E811145CF60E087E496E00E945D
:10243000170CC0E0D0E02097F1F30E941001882330
:10244000D1F30E940000F7CF5058BB27AA270E9463
:102450003C120C943D130E942F1338F00E94361347
:1024600020F039F49F3F19F426F40C942C130EF449
:10247000E095E7FB0C942613E92F0E944E1358F3C6
:10248000BA17620773078407950720F079F4A6F559
:102490000C9470130EF4E0950B2EBA2FA02D0B01A7
:1024A000B90190010C01CA01A0011124FF27591B99
:1024B00099F0593F50F4503E68F11A16F040A22F9F
:1024C000232F342F4427585FF3CF46953795279510
:1024D000A795F0405395C9F77EF41F16BA0B620B0F
:1024E000730B840BBAF09150A1F0FF0FBB1F661F56
:1024F000771F881FC2F70EC0BA0F621F731F841F99
:1025000048F4879577956795B795F7959E3F08F0BE
:10251000B0CF9395880F08F09927EE0F9795879580
:1025200008950E94021308F481E008950E94561352
:1025300088F09F5798F0B92F9927B751B0F0E1F084
:10254000660F771F881F991F1AF0BA95C9F714C034
:10255000B13091F00E947013B1E008950C947013A3
:10256000672F782F8827B85F39F0B93FCCF386956D
:1025700077956795B395D9F73EF4909580957095CA
:1025800061957F4F8F4F9F4F0895E89409C097FB47
:102590003EF490958095709561957F4F8F4F9F4F3A
:1025A0009923A9F0F92F96E9BB279395F69587957E
:1025B00077956795B795F111F8CFFAF4BB0F11F441
:1025C00060FF1BC06F5F7F4F8F4F9F4F16C08823E8
:1025D00011F096E911C0772321F09EE8872F762F1E
:1025E00005C0662371F096E8862F70E060E02AF05F
:1025F0009A95660F771F881FDAF7880F969587954B
:1026000097F90895990F0008550FAA0BE0E8FEEF1F
:1026100016161706E807F907C0F012161306E407A6
:10262000F50798F0621B730B840B950B39F40A269F
:1026300061F0232B242B252B21F408950A2609F47D
:10264000A140A6958FEF811D811D089597F99F6781
:1026500080E870E060E008959FEF80EC089500242A
:102660000A941616170618060906089500240A94F7
:1026700012161306140605060895092E0394000C7D
:1026800011F4882352F0BB0F40F4BF2B11F460FF0C
:1026900004C06F5F7F4F8F4F9F4F089557FD905835
:1026A000440F551F59F05F3F71F04795880F97FB16
:1026B000991F61F09F3F79F08795089512161306D0
:1026C0001406551FF2CF4695F1DF08C016161706FF
:1026D0001806991FF1CF8695710561050894089534
:1026E000E894BB2766277727CB0197F908950E94C6
:1026F000021308F48FEF08950E948F130C943D137A
:102700000E942F1338F00E94361320F0952311F009
:102710000C9426130C942C1311240C9471130E9406
:102720004E1370F3959FC1F3950F50E0551F629FB4
:10273000F001729FBB27F00DB11D639FAA27F00D1A
:10274000B11DAA1F649F6627B00DA11D661F829F41
:102750002227B00DA11D621F739FB00DA11D621F26
:10276000839FA00D611D221F749F3327A00D611D43
:10277000231F849F600D211D822F762F6A2F112425
:102780009F5750409AF0F1F088234AF0EE0FFF1F58
:10279000BB1F661F771F881F91505040A9F79E3FAF
:1027A000510580F00C9426130C9471135F3FE4F3F1
:1027B000983ED4F3869577956795B795F795E79505
:1027C0009F5FC1F7FE2B880F911D9695879597F90E
:1027D00008950E940213880B990B0895991B79E0C4
:1027E00004C0991F961708F0961B881F7A95C9F7A1
:1027F00080950895A1E21A2EAA1BBB1BFD010DC0F6
:10280000AA1FBB1FEE1FFF1FA217B307E407F507A0
:1028100020F0A21BB30BE40BF50B661F771F881F7C
:10282000991F1A9469F760957095809590959B0112
:10283000AC01BD01CF0108950E942D14A59F900DFC
:10284000B49F900DA49F800D911D11240895EE0F4B
:10285000FF1F0590F491E02D0994A29FB001B39F52
:10286000C001A39F700D811D1124911DB29F700D99
:10287000811D1124911D0895F894FFCFFFFFFFFFE4
:10288000000000004601A600D30098010401E20008
:10289000F60000000000260AA600C5099B0B0D0AE1
:1028A000000A496E697469616C697A696E672053C0
:1028B0004420636172642E2E2E00576972696E6720
:1028C00020697320636F727265637420616E642087
:1028D0006120636172642069732070726573656E34
:1028E000742E004361726420747970653A20202050
:1028F00020202020202000696E697469616C697A4B
:102900006174696F6E206661696C65642E2054681D
:10291000696E677320746F20636865636B3A002A81
:102920002069732061206361726420696E7365722F
:102930007465643F002A20697320796F757220776F
:102940006972696E6720636F72726563743F002AF3
:102950002064696420796F75206368616E67652003
:10296000746865206368697053656C656374207072
:10297000696E20746F206D6174636820796F757261
:1029800020736869656C64206F72206D6F64756C6C
:10299000653F0053443100534432005344484300E0
:1029A000556E6B6E6F776E00436F756C64206E6F43
:1029B000742066696E642046415431362F46415476
:1029C000333220706172746974696F6E2E0A4D61C2
:1029D0006B65207375726520796F75277665206643
:1029E0006F726D61747465642074686520636172D0
:1029F0006400436C7573746572733A202020202044
:102A0000202020202000426C6F636B7320782043CD
:102A10006C75737465723A202000546F74616C2079
:102A2000426C6F636B733A20202020202000566F89
:102A30006C756D6520747970652069733A2020206B
:102A40002046415400566F6C756D652073697A6538
:102A500020284B62293A202000566F6C756D652046
:102A600073697A6520284D62293A202000566F6CE0
:102A7000756D652073697A6520284762293A2020A0
:102A8000006E616E00696E66006F7666000A4669C8
:102A90006C657320666F756E64206F6E2074686558
:102AA000206361726420286E616D652C20646174FE
:102AB0006520616E642073697A6520696E20627991
:082AC000746573293A2000003F
:107E0000112484B714BE81FFF0D085E080938100F7
:107E100082E08093C00088E18093C10086E0809377
:107E2000C20080E18093C4008EE0C9D0259A86E02C
:107E300020E33CEF91E0309385002093840096BBD3
:107E4000B09BFECF1D9AA8958150A9F7CC24DD24C4
:107E500088248394B5E0AB2EA1E19A2EF3E0BF2EE7
:107E6000A2D0813461F49FD0082FAFD0023811F036
:107E7000013811F484E001C083E08DD089C08234E0
:107E800011F484E103C0853419F485E0A6D080C0E4
:107E9000853579F488D0E82EFF2485D0082F10E0AE
:107EA000102F00270E291F29000F111F8ED06801E7
:107EB0006FC0863521F484E090D080E0DECF843638
:107EC00009F040C070D06FD0082F6DD080E0C81688
:107ED00080E7D80618F4F601B7BEE895C0E0D1E017
:107EE00062D089930C17E1F7F0E0CF16F0E7DF06D8
:107EF00018F0F601B7BEE89568D007B600FCFDCFD4
:107F0000A601A0E0B1E02C9130E011968C91119780
:107F100090E0982F8827822B932B1296FA010C0160
:107F200087BEE89511244E5F5F4FF1E0A038BF0790
:107F300051F7F601A7BEE89507B600FCFDCF97BE46
:107F4000E89526C08437B1F42ED02DD0F82E2BD052
:107F50003CD0F601EF2C8F010F5F1F4F84911BD097
:107F6000EA94F801C1F70894C11CD11CFA94CF0C13
:107F7000D11C0EC0853739F428D08EE10CD085E9AC
:107F80000AD08FE07ACF813511F488E018D01DD067
:107F900080E101D065CF982F8091C00085FFFCCF94
:107FA0009093C60008958091C00087FFFCCF809118
:107FB000C00084FD01C0A8958091C6000895E0E648
:107FC000F0E098E1908380830895EDDF803219F02E
:107FD00088E0F5DFFFCF84E1DECF1F93182FE3DFCA
:107FE0001150E9F7F2DF1F91089580E0E8DFEE27F6
:047FF000FF270994CA
:027FFE00040479
:00000001FF
