S01700004763634170706C69636174696F6E352E7372656357
S11300000C942A000C9447000C9447000C9447006D
S11300100C9447000C9447000C9447000C94470040
S11300200C9447000C9447000C9447000C94470030
S11300300C9447000C9447000C9447000C94470020
S11300400C9447000C9447000C9447000C94470010
S11300500C94470011241FBECFE5D8E0DEBFCDBF0E
S113006010E0A0E6B0E0E0E6F2E002C005900D92F8
S1130070A237B107D9F720E0A2E7B0E001C01D9292
S1130080A337B207E1F70E941D010C942E010C94D2
S11300900000882321F088E0809360000895109286
S11300A060000895362F382B20916000232B28BB45
S11300B090916000932B946098BBEFE8F1E0319746
S11300C0F1F700C000008B7F682B80916000682BE3
S11300D068BB8FE99FE00197F1F700C00000089525
S11300E0CF93C82F60E0807F0E94520060E08C2F85
S11300F08295807F0E945200CF91089581E00E94F2
S113010049008FE39CE90197F1F700C000008FEFED
S113011087BB82E00E94700088E20E9470008CE03D
S11301200E94700086E00E94700081E00E947000CE
S11301300895CF93C82F61E0807F0E94520061E050
S11301408C2F8295807F0E945200CF9108950F9347
S11301501F93CF93DF938C01C0E0D0E0F801EC0F44
S1130160FD1F8081882321F00E9499002196F6CFFB
S1130170DF91CF911F910F910895CF93DF93EA01FF
S1130180613031F058F0623029F0633029F007C053
S113019090EC05C094E903C094ED01C090E88F7021
S11301A0892B0E947000CE010E94A700DF91CF919D
S11301B008958FE08ABB80EF8BBB89B38F608095F5
S11301C0E1F3803249F018F4803161F00CC08034DE
S11301D029F0803829F007C091E005C092E003C0FF
S11301E093E001C090E01ABA1BBA80EF8ABB8FE09B
S11301F08BBB89B3806F8095823049F018F48130CD
S113020061F00CC0843029F0883029F007C0E1E0A7
S113021005C0E2E003C0E3E001C0E0E08FE08ABB98
S113022080EF8BBBF0E0EE0FFF1FEE0FFF1FEE59C8
S1130230FF4FE90FF11D8081089587E20E947E003F
S113024041E650E060E080E00E94BD000E94D900D9
S113025080937200805D0E949900F8CFF894FFCFDC
S113026001000708090A0405060B0102030C0D002E
S10502700E0F6B
S9030000FC
