:100000000C9458000C9480000C9480000C94800098
:100010000C9480000C9480000C9480000C94800060
:100020000C9480000C9480000C9480000C94800050
:100030000C9480000C9480000C9480000C94800040
:100040000C94B0010C9480000C9480000C948000FF
:100050000C9480000C9480000C9480000C94800020
:100060000C94FA010C948000000000002500280088
:100070002B00040404040404040402020202020229
:10008000030303030303010204081020408001025C
:1000900004081020010204081020000000080002DB
:1000A0000100000304070000000000000000F50349
:1000B00011241FBECFEFD8E0DEBFCDBF11E0A0E01E
:1000C000B1E0E6E2F8E002C005900D92A231B1077E
:1000D000D9F721E0A2E1B1E001C01D92AB3BB2072C
:1000E000E1F710E0C8E5D0E004C02197FE010E94CE
:1000F0000604C735D107C9F70E9428030C941104E0
:100100000C94000090E0FC01E656FF4F2491FC01A6
:10011000EA57FF4F3491FC01EE58FF4FE491EE2374
:10012000B1F1222339F1233091F038F42130A9F0D4
:10013000223001F584B58F7D12C0273091F0283030
:10014000A1F02430B9F4809180008F7D03C08091AC
:1001500080008F77809380000DC084B58F7784BD39
:1001600009C08091B0008F7703C08091B0008F7D6F
:100170008093B000F0E0EE0FFF1FE859FF4FA5910C
:10018000B4918FB7F894EC913E2B3C938FBF0895B8
:10019000CF92DF92EF92FF920F931F93CF93DF9353
:1001A0006C017A018B01C0E0D0E0CE15DF0589F04B
:1001B000D8016D918D01D601ED91FC910190F081F6
:1001C000E02DC6010995892B11F47E0102C021960C
:1001D000ECCFC701DF91CF911F910F91FF90EF906E
:1001E000DF90CF90089585ED8093BC008091BC0096
:1001F00084FDFCCF10928101089540913401262F97
:1002000030E0240F311D21323105DCF420918101D1
:100210002430C9F4FC0180E090E0861758F4309156
:1002200034012191DC01AE5EBE4FA30FB11D2C93B2
:100230000196F3CF80913401680F6093340180E020
:10024000089581E0089582E00895089581E090E0A6
:1002500030915A0120915901321710F480E090E05A
:10026000919581959109089580915A019091590134
:10027000891730F48F5F80935A0180E090E00895F1
:100280008FEF9FEF08958091590190E020915A01DE
:10029000821B91090895CF92DF92EF92FF920F9304
:1002A0001F93CF93DF937C01262F972F8A01809194
:1002B0008201882391F0C62FD72F6E01C40ED51E60
:1002C000CC15DD0571F06991D701ED91FC9101909C
:1002D000F081E02DC7010995F3CF642F822F0E9492
:1002E000FD00C801DF91CF911F910F91FF90EF901A
:1002F000DF90CF900895CF93DF931F92CDB7DEB7F5
:100300006983209182012223D1F02091A50120321E
:1003100040F021E030E0FC013383228380E090E074
:1003200015C080918301E82FF0E0EC57FE4F9981D2
:1003300090838F5F809383018093A50105C061E066
:10034000CE0101960E94FD0081E090E00F90DF91C8
:10035000CF910895089580E090E008950E940C04E4
:100360001F920F920FB60F9211242F933F938F93EA
:100370009F93AF93BF938091B7019091B801A091E3
:10038000B901B091BA013091B60123E0230F2D37A6
:1003900020F40196A11DB11D05C026E8230F029689
:1003A000A11DB11D2093B6018093B7019093B801B0
:1003B000A093B901B093BA018091B2019091B301B9
:1003C000A091B401B091B5010196A11DB11D80931A
:1003D000B2019093B301A093B401B093B501BF9162
:1003E000AF919F918F913F912F910F900FBE0F90E2
:1003F0001F9018951F920F920FB60F9211242F93F2
:100400003F934F935F936F937F938F939F93AF939C
:10041000BF93EF93FF938091B900887F803609F4F2
:100420009CC068F5883209F45BC090F4803109F40F
:1004300054C038F4882309F4F6C0883009F44DC05C
:10044000F6C0883109F44CC0803209F45DC0EFC0B9
:10045000803409F468C048F4803309F455C0883307
:1004600009F0E5C080937F01D8C0803509F44FC002
:10047000883509F45DC0883409F0D9C0D6C0883900
:1004800009F4C7C0A8F4883709F467C038F488367F
:1004900009F463C0803709F460C0C9C0883809F422
:1004A000B8C0803909F45FC0803809F0C0C05BC0B3
:1004B000803B09F486C038F4803A09F466C0883A73
:1004C00009F47FC0B4C0803C09F4A7C0883C09F49B
:1004D000A4C0883B09F48AC0AAC080915C0110C006
:1004E00090917E0180917D01981770F5E0917E01D9
:1004F00081E08E0F80937E01F0E0E35AFE4F808111
:100500008093BB0085EC86C080937F018EC0E09114
:100510007E0181E08E0F80937E018091BB00F0E030
:10052000E35AFE4F808390917E0180917D016EC0E1
:10053000E0917E0181E08E0F80937E018091BB006F
:10054000F0E0E35AFE4F80838091800181116DC0FD
:1005500081E080935B0184EA61C083E08093810144
:1005600010925801CFCF80915801803208F051C0CD
:10057000E091580181E08E0F809358018091BB007B
:10058000F0E0E85CFE4F8083BDCF85EC8093BC003B
:100590001092810180915801803230F4E09158012D
:1005A000F0E0E85CFE4F10826091580170E0E0914D
:1005B0003601F091370188E391E0099510925801D6
:1005C00036C084E08093810110923501109234018D
:1005D000E0913201F091330109958091340181114C
:1005E00005C081E08093340110921201E091350141
:1005F00081E08E0F80933501F0E0EE5EFE4F80814A
:100600008093BB009091350180913401981708F4D4
:1006100079CF85E88093BC000AC085EC8093BC004C
:100620001092810104C010927F010E94F300FF919B
:10063000EF91BF91AF919F918F917F916F915F915A
:100640004F913F912F910F900FBE0F901F901895D3
:10065000789484B5826084BD84B5816084BD85B59D
:10066000826085BD85B5816085BD80916E008160A9
:1006700080936E001092810080918100826080934F
:100680008100809181008160809381008091800051
:100690008160809380008091B10084608093B1007C
:1006A0008091B00081608093B00080917A00846076
:1006B00080937A0080917A00826080937A008091A2
:1006C0007A00816080937A0080917A0080688093BC
:1006D0007A001092C10010925A01109259011092A2
:1006E00083011092A50110928101C1E0C0938001A5
:1006F00010925B0182E10E94820083E10E948200ED
:100700008091B9008E7F8093B9008091B9008D7F70
:100710008093B90088E48093B80085E48093BC009E
:10072000C093820187E28093A4011092830110920A
:10073000A50162E086EA91E00E947B018091A5011B
:10074000813208F045C0909181019111FCCF92E077
:100750009093810191E0909380019FEF90937F01AE
:1007600010927E0180937D01A4E8B1E02DE531E097
:10077000F9019E2F921B981718F49D919193F9CF30
:1007800010925C0180915C018E6480935C01809189
:100790005B01813061F410925B0180915C01809378
:1007A000BB008091BC0083FDF8CF85EC01C085EED5
:1007B0008093BC00809181018230E1F380917F01C0
:1007C0008F3F31F080917F01803211F080917F0165
:1007D000109283011092A50110928201C0E0D0E036
:1007E0002097F1F30E940000FBCFE6EAF1E01382CC
:1007F000128288EE93E0A0E0B0E084839583A68324
:10080000B78384E091E0918380830895EE0FFF1F0A
:100810000590F491E02D099481E090E0F8940C9417
:060820001104F894FFCF63
:10082600000000007B014B01AB01250143013401AF
:02083600260199
:00000001FF
