S01700004763634170706C69636174696F6E342E7372656358
S11300000C942A000C9434000C9434000C943400A6
S11300100C9434000C9434000C9434000C9434008C
S11300200C9434000C9434000C9434000C9434007C
S11300300C9434000C9434000C9434000C9434006C
S11300400C9434000C9434000C9434000C9434005C
S11300500C94340011241FBECFE5D8E0DEBFCDBF21
S11300600E940E010C941C010C940000FC0140E061
S113007050E04E175F0708F072C06623B9F194E0B0
S1130080983008F069C082B3A92FB0E021E030E0D5
S1130090092E02C0220F331F0A94E2F78F70282B17
S11300A022BB2FEF30E782E0215030408040E1F75F
S11300B000C00000973021F482B3806182BB0BC082
S11300C082B3119621E030E002C0220F331FAA95BB
S11300D0E2F7282B22BB2FEF30E782E0215030409B
S11300E08040E1F700C000009F5FCACF97E09430E2
S11300F098F182B3A92FB0E021E030E0092E02C0CC
S1130100220F331F0A94E2F78F70282B22BB2FEFA4
S113011030E782E0215030408040E1F700C0000029
S1130120973021F482B3806882BB0BC082B31197ED
S113013021E030E002C0220F331FAA95E2F7282BFA
S113014022BB2FEF30E782E0215030408040E1F7BE
S113015000C000009150CBCF4F5F5F4F8ACF08950E
S113016040E0443638F598B321E030E0082E02C070
S1130170220F331F0A94E2F7922B98BB90E09A3037
S113018040F4E7ECF0E03197F1F700C000009F5F26
S1130190F6CF98B32095292328BB90E09E3B40F4EA
S11301A0E7ECF0E03197F1F700C000009F5FF6CF75
S11301B04F5FD7CFFFEF24E33CE0F15020403040C5
S11301C0E1F700C0000040E0443638F598B321E080
S11301D030E0082E02C0220F331F0A94E2F7922B5C
S11301E098BB90E09F3040F4E7ECF0E03197F1F7F2
S11301F000C000009F5FF6CF98B32095292328BB49
S113020090E09F3040F4E7ECF0E03197F1F700C064
S113021000009F5FF6CF4F5FD7CF089581B3806F03
S113022081BB8FEF87BB80E00E94B00061E085E076
S10F023090E00E943600FFCFF894FFCF4E
S9030000FC
