:100000000C942A000C943C000C943C000C943C0092
:100010000C943C000C943C000C943C000C943C0070
:100020000C943C000C943C000C94B8000C943C00E4
:100030000C943C000C94D0000C943C000C943C00BC
:100040000C943C000C943C000C943C000C943C0040
:100050000C943C0011241FBECFE5D8E0DEBFCDBF1D
:1000600020E0A0E6B0E001C01D92A536B207E1F79E
:100070000E943E000C9418010C9400008AB38C7FFF
:100080008ABB8FEF84BB8AB3806F8ABB81B38860E1
:1000900081BB83B7886083BF83B7826083BF12BE92
:1000A0008AE08CBF89B7826089BF10BC83E389B9BD
:1000B00080E98AB98EE880BD789482B3877F82BB5D
:1000C00025E82A95F1F7000082B3886082BB85E8B5
:1000D0008A95F1F7000082B3877F82BB829905C0C1
:1000E0001092640010926300F9CF829B09C0809146
:1000F0006300909164009093620080936100F5CF5B
:100100008091610090916200883C910538F485B33C
:10011000806885BB8BB38F708BBB20C0C89B09C028
:100120008BB38F7080668BBB95B381E0892785BBCD
:1001300015C0C99B09C08BB38F7080698BBB95B309
:1001400082E0892785BB0AC085B38F7785BB8BB3D7
:100150008F7080658BBB85B38C7F85BB9FEF20E75D
:1001600082E0915020408040E1F700C00000A5CF20
:100170001F920F920FB60F9211248F939F9380912D
:1001800063009091640001969093640080936300F3
:1001900012BE9F918F910F900FBE0F901F901895D8
:1001A0001F920F920FB60F9211242F938F939F934C
:1001B0008CB18093600080916000882389F18091E8
:1001C00060008C34A9F028F4823469F0863431F070
:1001D0001CC0823591F08335A9F017C08BB38F70A6
:1001E00080658BBB12C08BB38F70806A8BBB0DC0D8
:1001F0008BB38F7080698BBB08C08BB38F708066A8
:100200008BBB03C08BB38F708BBB2FEF80E792E06B
:10021000215080409040E1F700C000001092600043
:100220009F918F912F910F900FBE0F901F90189557
:04023000F894FFCF70
:00000001FF
